{
  "contractName": "Redeem",
  "abi": [
    {
      "inputs": [
        {
          "internalType": "contract Token",
          "name": "_token",
          "type": "address"
        }
      ],
      "payable": false,
      "stateMutability": "nonpayable",
      "type": "constructor"
    },
    {
      "anonymous": false,
      "inputs": [
        {
          "indexed": false,
          "internalType": "address",
          "name": "account",
          "type": "address"
        },
        {
          "indexed": false,
          "internalType": "address",
          "name": "token",
          "type": "address"
        },
        {
          "indexed": false,
          "internalType": "uint256",
          "name": "amount",
          "type": "uint256"
        },
        {
          "indexed": false,
          "internalType": "uint256",
          "name": "rate",
          "type": "uint256"
        }
      ],
      "name": "TokenPurchased",
      "type": "event"
    },
    {
      "constant": true,
      "inputs": [
        {
          "internalType": "string",
          "name": "",
          "type": "string"
        }
      ],
      "name": "Items",
      "outputs": [
        {
          "internalType": "uint256",
          "name": "_price",
          "type": "uint256"
        },
        {
          "internalType": "string",
          "name": "_name",
          "type": "string"
        },
        {
          "internalType": "string",
          "name": "_type",
          "type": "string"
        },
        {
          "internalType": "bytes32",
          "name": "_hash",
          "type": "bytes32"
        },
        {
          "internalType": "uint256",
          "name": "_dated",
          "type": "uint256"
        },
        {
          "internalType": "address",
          "name": "itemOwner",
          "type": "address"
        },
        {
          "internalType": "bool",
          "name": "isAvailable",
          "type": "bool"
        },
        {
          "internalType": "uint256",
          "name": "index",
          "type": "uint256"
        }
      ],
      "payable": false,
      "stateMutability": "view",
      "type": "function"
    },
    {
      "constant": true,
      "inputs": [
        {
          "internalType": "address",
          "name": "",
          "type": "address"
        }
      ],
      "name": "WelcomeOfferAvailed",
      "outputs": [
        {
          "internalType": "bool",
          "name": "",
          "type": "bool"
        }
      ],
      "payable": false,
      "stateMutability": "view",
      "type": "function"
    },
    {
      "constant": true,
      "inputs": [
        {
          "internalType": "uint256",
          "name": "",
          "type": "uint256"
        }
      ],
      "name": "itemIndexes",
      "outputs": [
        {
          "internalType": "string",
          "name": "",
          "type": "string"
        }
      ],
      "payable": false,
      "stateMutability": "view",
      "type": "function"
    },
    {
      "constant": false,
      "inputs": [
        {
          "internalType": "string",
          "name": "_type",
          "type": "string"
        },
        {
          "internalType": "string",
          "name": "_name",
          "type": "string"
        },
        {
          "internalType": "uint256",
          "name": "_price",
          "type": "uint256"
        },
        {
          "internalType": "string",
          "name": "_credentials",
          "type": "string"
        }
      ],
      "name": "generateItem",
      "outputs": [],
      "payable": false,
      "stateMutability": "nonpayable",
      "type": "function"
    },
    {
      "constant": false,
      "inputs": [],
      "name": "getItems",
      "outputs": [
        {
          "internalType": "string[]",
          "name": "",
          "type": "string[]"
        }
      ],
      "payable": false,
      "stateMutability": "nonpayable",
      "type": "function"
    },
    {
      "constant": true,
      "inputs": [
        {
          "internalType": "string",
          "name": "_name",
          "type": "string"
        }
      ],
      "name": "getItem",
      "outputs": [
        {
          "components": [
            {
              "internalType": "uint256",
              "name": "_price",
              "type": "uint256"
            },
            {
              "internalType": "string",
              "name": "_name",
              "type": "string"
            },
            {
              "internalType": "string",
              "name": "_type",
              "type": "string"
            },
            {
              "internalType": "bytes32",
              "name": "_hash",
              "type": "bytes32"
            },
            {
              "internalType": "uint256",
              "name": "_dated",
              "type": "uint256"
            },
            {
              "internalType": "address",
              "name": "itemOwner",
              "type": "address"
            },
            {
              "internalType": "bool",
              "name": "isAvailable",
              "type": "bool"
            },
            {
              "internalType": "uint256",
              "name": "index",
              "type": "uint256"
            }
          ],
          "internalType": "struct Redeem.Item",
          "name": "",
          "type": "tuple"
        }
      ],
      "payable": false,
      "stateMutability": "view",
      "type": "function"
    },
    {
      "constant": true,
      "inputs": [],
      "name": "getAllItems",
      "outputs": [
        {
          "components": [
            {
              "internalType": "uint256",
              "name": "_price",
              "type": "uint256"
            },
            {
              "internalType": "string",
              "name": "_name",
              "type": "string"
            },
            {
              "internalType": "string",
              "name": "_type",
              "type": "string"
            },
            {
              "internalType": "bytes32",
              "name": "_hash",
              "type": "bytes32"
            },
            {
              "internalType": "uint256",
              "name": "_dated",
              "type": "uint256"
            },
            {
              "internalType": "address",
              "name": "itemOwner",
              "type": "address"
            },
            {
              "internalType": "bool",
              "name": "isAvailable",
              "type": "bool"
            },
            {
              "internalType": "uint256",
              "name": "index",
              "type": "uint256"
            }
          ],
          "internalType": "struct Redeem.Item[]",
          "name": "",
          "type": "tuple[]"
        }
      ],
      "payable": false,
      "stateMutability": "view",
      "type": "function"
    },
    {
      "constant": true,
      "inputs": [
        {
          "components": [
            {
              "internalType": "uint256",
              "name": "_price",
              "type": "uint256"
            },
            {
              "internalType": "string",
              "name": "_name",
              "type": "string"
            },
            {
              "internalType": "string",
              "name": "_type",
              "type": "string"
            },
            {
              "internalType": "bytes32",
              "name": "_hash",
              "type": "bytes32"
            },
            {
              "internalType": "uint256",
              "name": "_dated",
              "type": "uint256"
            },
            {
              "internalType": "address",
              "name": "itemOwner",
              "type": "address"
            },
            {
              "internalType": "bool",
              "name": "isAvailable",
              "type": "bool"
            },
            {
              "internalType": "uint256",
              "name": "index",
              "type": "uint256"
            }
          ],
          "internalType": "struct Redeem.Item",
          "name": "_item",
          "type": "tuple"
        }
      ],
      "name": "getCredentials",
      "outputs": [
        {
          "internalType": "string",
          "name": "",
          "type": "string"
        }
      ],
      "payable": false,
      "stateMutability": "view",
      "type": "function"
    },
    {
      "constant": true,
      "inputs": [
        {
          "internalType": "address",
          "name": "_user",
          "type": "address"
        }
      ],
      "name": "getUserItems",
      "outputs": [
        {
          "components": [
            {
              "internalType": "uint256",
              "name": "_price",
              "type": "uint256"
            },
            {
              "internalType": "string",
              "name": "_name",
              "type": "string"
            },
            {
              "internalType": "string",
              "name": "_type",
              "type": "string"
            },
            {
              "internalType": "bytes32",
              "name": "_hash",
              "type": "bytes32"
            },
            {
              "internalType": "uint256",
              "name": "_dated",
              "type": "uint256"
            },
            {
              "internalType": "address",
              "name": "itemOwner",
              "type": "address"
            },
            {
              "internalType": "bool",
              "name": "isAvailable",
              "type": "bool"
            },
            {
              "internalType": "uint256",
              "name": "index",
              "type": "uint256"
            }
          ],
          "internalType": "struct Redeem.Item[]",
          "name": "",
          "type": "tuple[]"
        }
      ],
      "payable": false,
      "stateMutability": "view",
      "type": "function"
    },
    {
      "constant": false,
      "inputs": [
        {
          "internalType": "uint256",
          "name": "amount",
          "type": "uint256"
        }
      ],
      "name": "transferToken",
      "outputs": [],
      "payable": false,
      "stateMutability": "nonpayable",
      "type": "function"
    },
    {
      "constant": false,
      "inputs": [],
      "name": "welcomeToken",
      "outputs": [],
      "payable": false,
      "stateMutability": "nonpayable",
      "type": "function"
    },
    {
      "constant": false,
      "inputs": [
        {
          "internalType": "string",
          "name": "_name",
          "type": "string"
        },
        {
          "internalType": "address",
          "name": "_address",
          "type": "address"
        }
      ],
      "name": "redeemItem",
      "outputs": [],
      "payable": false,
      "stateMutability": "nonpayable",
      "type": "function"
    }
  ],
  "bytecode": "0x608060405260006008553480156200001657600080fd5b50604051620029de380380620029de83398181016040526200003c9190810190620000db565b806000806101000a81548173ffffffffffffffffffffffffffffffffffffffff021916908373ffffffffffffffffffffffffffffffffffffffff16021790555033600660006101000a81548173ffffffffffffffffffffffffffffffffffffffff021916908373ffffffffffffffffffffffffffffffffffffffff1602179055505062000169565b600081519050620000d5816200014f565b92915050565b600060208284031215620000ee57600080fd5b6000620000fe84828501620000c4565b91505092915050565b600062000114826200012f565b9050919050565b6000620001288262000107565b9050919050565b600073ffffffffffffffffffffffffffffffffffffffff82169050919050565b6200015a816200011b565b81146200016657600080fd5b50565b61286580620001796000396000f3fe608060405234801561001057600080fd5b50600436106100b45760003560e01c80639fc71b31116100715780639fc71b3114610194578063aabe3f64146101b0578063b6010fcd146101ba578063ce6019b4146101ea578063d8b53c9c1461021a578063de6e51731461024a576100b4565b80630dd3dc78146100b957806324e81a2f146100d557806337298bfe14610105578063410d59cc146101215780634547a6b31461013f5780634ba1d6aa14610176575b600080fd5b6100d360048036036100ce9190810190611ba5565b61027a565b005b6100ef60048036036100ea9190810190611ad1565b61042a565b6040516100fc91906123e6565b60405180910390f35b61011f600480360361011a9190810190611bf9565b61044a565b005b6101296106ce565b60405161013691906123a2565b60405180910390f35b61015960048036036101549190810190611b23565b6107b7565b60405161016d9897969594939291906124ec565b60405180910390f35b61017e610972565b60405161018b91906123c4565b60405180910390f35b6101ae60048036036101a99190810190611ce5565b610c10565b005b6101b8610dd7565b005b6101d460048036036101cf9190810190611b64565b610f9e565b6040516101e191906124ca565b60405180910390f35b61020460048036036101ff9190810190611ad1565b6111c0565b60405161021191906123c4565b60405180910390f35b610234600480360361022f9190810190611ca4565b6114ec565b6040516102419190612423565b60405180910390f35b610264600480360361025f9190810190611ce5565b611617565b6040516102719190612401565b60405180910390f35b600060018360405161028c9190612246565b908152602001604051809103902060000154905060006001846040516102b29190612246565b908152602001604051809103902090508060050160149054906101000a900460ff16610313576040517f08c379a000000000000000000000000000000000000000000000000000000000815260040161030a9061248a565b60405180910390fd5b828160050160006101000a81548173ffffffffffffffffffffffffffffffffffffffff021916908373ffffffffffffffffffffffffffffffffffffffff16021790555060008160050160146101000a81548160ff0219169083151502179055506000809054906101000a900473ffffffffffffffffffffffffffffffffffffffff1673ffffffffffffffffffffffffffffffffffffffff166323b872dd8430856040518463ffffffff1660e01b81526004016103d19392919061236b565b602060405180830381600087803b1580156103eb57600080fd5b505af11580156103ff573d6000803e3d6000fd5b505050506040513d601f19601f820116820180604052506104239190810190611afa565b5050505050565b60046020528060005260406000206000915054906101000a900460ff1681565b600660009054906101000a900473ffffffffffffffffffffffffffffffffffffffff1673ffffffffffffffffffffffffffffffffffffffff163373ffffffffffffffffffffffffffffffffffffffff16146104a457600080fd5b6104ac6116d0565b8381602001819052508481604001819052508281600001818152505042816080018181525050338160a0019073ffffffffffffffffffffffffffffffffffffffff16908173ffffffffffffffffffffffffffffffffffffffff168152505060018160c00190151590811515815250508385826080015160405160200161053493929190612445565b60405160208183030381529060405280519060200120816060018181525050806001856040516105649190612246565b9081526020016040518091039020600082015181600001556020820151816001019080519060200190610598929190611730565b5060408201518160020190805190602001906105b5929190611730565b50606082015181600301556080820151816004015560a08201518160050160006101000a81548173ffffffffffffffffffffffffffffffffffffffff021916908373ffffffffffffffffffffffffffffffffffffffff16021790555060c08201518160050160146101000a81548160ff02191690831515021790555060e0820151816006015590505081600560008360600151815260200190815260200160002090805190602001906106699291906117b0565b5060016008540160088190555060078490806001815401808255809150509060018203906000526020600020016000909192909190915090805190602001906106b39291906117b0565b50506001600780549050038160e00181815250505050505050565b60606007805480602002602001604051908101604052809291908181526020016000905b828210156107ae578382906000526020600020018054600181600116156101000203166002900480601f01602080910402602001604051908101604052809291908181526020018280546001816001161561010002031660029004801561079a5780601f1061076f5761010080835404028352916020019161079a565b820191906000526020600020905b81548152906001019060200180831161077d57829003601f168201915b5050505050815260200190600101906106f2565b50505050905090565b600181805160208101820180518482526020830160208501208183528095505050505050600091509050806000015490806001018054600181600116156101000203166002900480601f01602080910402602001604051908101604052809291908181526020018280546001816001161561010002031660029004801561087f5780601f106108545761010080835404028352916020019161087f565b820191906000526020600020905b81548152906001019060200180831161086257829003601f168201915b505050505090806002018054600181600116156101000203166002900480601f01602080910402602001604051908101604052809291908181526020018280546001816001161561010002031660029004801561091d5780601f106108f25761010080835404028352916020019161091d565b820191906000526020600020905b81548152906001019060200180831161090057829003601f168201915b5050505050908060030154908060040154908060050160009054906101000a900473ffffffffffffffffffffffffffffffffffffffff16908060050160149054906101000a900460ff16908060060154905088565b6060806008546040519080825280602002602001820160405280156109b157816020015b61099e611830565b8152602001906001900390816109965790505b50905060008090505b600780549050811015610c08576001600782815481106109d657fe5b906000526020600020016040516109ed919061225d565b90815260200160405180910390206040518061010001604052908160008201548152602001600182018054600181600116156101000203166002900480601f016020809104026020016040519081016040528092919081815260200182805460018160011615610100020316600290048015610aaa5780601f10610a7f57610100808354040283529160200191610aaa565b820191906000526020600020905b815481529060010190602001808311610a8d57829003601f168201915b50505050508152602001600282018054600181600116156101000203166002900480601f016020809104026020016040519081016040528092919081815260200182805460018160011615610100020316600290048015610b4c5780601f10610b2157610100808354040283529160200191610b4c565b820191906000526020600020905b815481529060010190602001808311610b2f57829003601f168201915b5050505050815260200160038201548152602001600482015481526020016005820160009054906101000a900473ffffffffffffffffffffffffffffffffffffffff1673ffffffffffffffffffffffffffffffffffffffff1673ffffffffffffffffffffffffffffffffffffffff1681526020016005820160149054906101000a900460ff16151515158152602001600682015481525050828281518110610bf057fe5b602002602001018190525080806001019150506109ba565b508091505090565b806000809054906101000a900473ffffffffffffffffffffffffffffffffffffffff1673ffffffffffffffffffffffffffffffffffffffff166370a08231306040518263ffffffff1660e01b8152600401610c6b9190612274565b60206040518083038186803b158015610c8357600080fd5b505afa158015610c97573d6000803e3d6000fd5b505050506040513d601f19601f82011682018060405250610cbb9190810190611d0e565b1015610cc657600080fd5b6000809054906101000a900473ffffffffffffffffffffffffffffffffffffffff1673ffffffffffffffffffffffffffffffffffffffff1663a9059cbb33836040518363ffffffff1660e01b8152600401610d22929190612342565b602060405180830381600087803b158015610d3c57600080fd5b505af1158015610d50573d6000803e3d6000fd5b505050506040513d601f19601f82011682018060405250610d749190810190611afa565b507f8daf503382665d950e449b86172be5222275c90f4ddf69c29fdaa8237a562a6d336000809054906101000a900473ffffffffffffffffffffffffffffffffffffffff16836064604051610dcc94939291906122d4565b60405180910390a150565b60001515600460003373ffffffffffffffffffffffffffffffffffffffff1673ffffffffffffffffffffffffffffffffffffffff16815260200190815260200160002060009054906101000a900460ff16151514610e3457600080fd5b6000809054906101000a900473ffffffffffffffffffffffffffffffffffffffff1673ffffffffffffffffffffffffffffffffffffffff1663a9059cbb3360c86040518363ffffffff1660e01b8152600401610e91929190612319565b602060405180830381600087803b158015610eab57600080fd5b505af1158015610ebf573d6000803e3d6000fd5b505050506040513d601f19601f82011682018060405250610ee39190810190611afa565b506001600460003373ffffffffffffffffffffffffffffffffffffffff1673ffffffffffffffffffffffffffffffffffffffff16815260200190815260200160002060006101000a81548160ff0219169083151502179055507f8daf503382665d950e449b86172be5222275c90f4ddf69c29fdaa8237a562a6d336000809054906101000a900473ffffffffffffffffffffffffffffffffffffffff1660c86064604051610f94949392919061228f565b60405180910390a1565b610fa66116d0565b610fae6116d0565b600183604051610fbe9190612246565b90815260200160405180910390206040518061010001604052908160008201548152602001600182018054600181600116156101000203166002900480601f01602080910402602001604051908101604052809291908181526020018280546001816001161561010002031660029004801561107b5780601f106110505761010080835404028352916020019161107b565b820191906000526020600020905b81548152906001019060200180831161105e57829003601f168201915b50505050508152602001600282018054600181600116156101000203166002900480601f01602080910402602001604051908101604052809291908181526020018280546001816001161561010002031660029004801561111d5780601f106110f25761010080835404028352916020019161111d565b820191906000526020600020905b81548152906001019060200180831161110057829003601f168201915b5050505050815260200160038201548152602001600482015481526020016005820160009054906101000a900473ffffffffffffffffffffffffffffffffffffffff1673ffffffffffffffffffffffffffffffffffffffff1673ffffffffffffffffffffffffffffffffffffffff1681526020016005820160149054906101000a900460ff16151515158152602001600682015481525050905080915050919050565b6060806008546040519080825280602002602001820160405280156111ff57816020015b6111ec611830565b8152602001906001900390816111e45790505b50905060008090505b6007805490508110156114e2578373ffffffffffffffffffffffffffffffffffffffff1660016007838154811061123b57fe5b90600052602060002001604051611252919061225d565b908152602001604051809103902060050160009054906101000a900473ffffffffffffffffffffffffffffffffffffffff1673ffffffffffffffffffffffffffffffffffffffff1614156114d5576001600782815481106112af57fe5b906000526020600020016040516112c6919061225d565b90815260200160405180910390206040518061010001604052908160008201548152602001600182018054600181600116156101000203166002900480601f0160208091040260200160405190810160405280929190818152602001828054600181600116156101000203166002900480156113835780601f1061135857610100808354040283529160200191611383565b820191906000526020600020905b81548152906001019060200180831161136657829003601f168201915b50505050508152602001600282018054600181600116156101000203166002900480601f0160208091040260200160405190810160405280929190818152602001828054600181600116156101000203166002900480156114255780601f106113fa57610100808354040283529160200191611425565b820191906000526020600020905b81548152906001019060200180831161140857829003601f168201915b5050505050815260200160038201548152602001600482015481526020016005820160009054906101000a900473ffffffffffffffffffffffffffffffffffffffff1673ffffffffffffffffffffffffffffffffffffffff1673ffffffffffffffffffffffffffffffffffffffff1681526020016005820160149054906101000a900460ff161515151581526020016006820154815250508282815181106114c957fe5b60200260200101819052505b8080600101915050611208565b5080915050919050565b60608160a0015173ffffffffffffffffffffffffffffffffffffffff163373ffffffffffffffffffffffffffffffffffffffff1614611560576040517f08c379a0000000000000000000000000000000000000000000000000000000008152600401611557906124aa565b60405180910390fd5b60056000836060015181526020019081526020016000208054600181600116156101000203166002900480601f01602080910402602001604051908101604052809291908181526020018280546001816001161561010002031660029004801561160b5780601f106115e05761010080835404028352916020019161160b565b820191906000526020600020905b8154815290600101906020018083116115ee57829003601f168201915b50505050509050919050565b6007818154811061162457fe5b906000526020600020016000915090508054600181600116156101000203166002900480601f0160208091040260200160405190810160405280929190818152602001828054600181600116156101000203166002900480156116c85780601f1061169d576101008083540402835291602001916116c8565b820191906000526020600020905b8154815290600101906020018083116116ab57829003601f168201915b505050505081565b6040518061010001604052806000815260200160608152602001606081526020016000801916815260200160008152602001600073ffffffffffffffffffffffffffffffffffffffff168152602001600015158152602001600081525090565b828054600181600116156101000203166002900490600052602060002090601f016020900481019282601f1061177157805160ff191683800117855561179f565b8280016001018555821561179f579182015b8281111561179e578251825591602001919060010190611783565b5b5090506117ac9190611890565b5090565b828054600181600116156101000203166002900490600052602060002090601f016020900481019282601f106117f157805160ff191683800117855561181f565b8280016001018555821561181f579182015b8281111561181e578251825591602001919060010190611803565b5b50905061182c9190611890565b5090565b6040518061010001604052806000815260200160608152602001606081526020016000801916815260200160008152602001600073ffffffffffffffffffffffffffffffffffffffff168152602001600015158152602001600081525090565b6118b291905b808211156118ae576000816000905550600101611896565b5090565b90565b6000813590506118c4816127c6565b92915050565b6000813590506118d9816127dd565b92915050565b6000815190506118ee816127dd565b92915050565b600081359050611903816127f4565b92915050565b600082601f83011261191a57600080fd5b813561192d611928826125a5565b612578565b9150808252602083016020830185838301111561194957600080fd5b611954838284612773565b50505092915050565b600082601f83011261196e57600080fd5b813561198161197c826125d1565b612578565b9150808252602083016020830185838301111561199d57600080fd5b6119a8838284612773565b50505092915050565b600061010082840312156119c457600080fd5b6119cf610100612578565b905060006119df84828501611aa7565b600083015250602082013567ffffffffffffffff8111156119ff57600080fd5b611a0b84828501611909565b602083015250604082013567ffffffffffffffff811115611a2b57600080fd5b611a3784828501611909565b6040830152506060611a4b848285016118f4565b6060830152506080611a5f84828501611aa7565b60808301525060a0611a73848285016118b5565b60a08301525060c0611a87848285016118ca565b60c08301525060e0611a9b84828501611aa7565b60e08301525092915050565b600081359050611ab68161280b565b92915050565b600081519050611acb8161280b565b92915050565b600060208284031215611ae357600080fd5b6000611af1848285016118b5565b91505092915050565b600060208284031215611b0c57600080fd5b6000611b1a848285016118df565b91505092915050565b600060208284031215611b3557600080fd5b600082013567ffffffffffffffff811115611b4f57600080fd5b611b5b84828501611909565b91505092915050565b600060208284031215611b7657600080fd5b600082013567ffffffffffffffff811115611b9057600080fd5b611b9c8482850161195d565b91505092915050565b60008060408385031215611bb857600080fd5b600083013567ffffffffffffffff811115611bd257600080fd5b611bde8582860161195d565b9250506020611bef858286016118b5565b9150509250929050565b60008060008060808587031215611c0f57600080fd5b600085013567ffffffffffffffff811115611c2957600080fd5b611c358782880161195d565b945050602085013567ffffffffffffffff811115611c5257600080fd5b611c5e8782880161195d565b9350506040611c6f87828801611aa7565b925050606085013567ffffffffffffffff811115611c8c57600080fd5b611c988782880161195d565b91505092959194509250565b600060208284031215611cb657600080fd5b600082013567ffffffffffffffff811115611cd057600080fd5b611cdc848285016119b1565b91505092915050565b600060208284031215611cf757600080fd5b6000611d0584828501611aa7565b91505092915050565b600060208284031215611d2057600080fd5b6000611d2e84828501611abc565b91505092915050565b6000611d438383611f3a565b905092915050565b6000611d578383612171565b905092915050565b611d6881612719565b82525050565b611d77816126c7565b82525050565b611d86816126c7565b82525050565b6000611d9782612632565b611da18185612678565b935083602082028501611db3856125fd565b8060005b85811015611def5784840389528151611dd08582611d37565b9450611ddb8361265e565b925060208a01995050600181019050611db7565b50829750879550505050505092915050565b6000611e0c8261263d565b611e168185612689565b935083602082028501611e288561260d565b8060005b85811015611e645784840389528151611e458582611d4b565b9450611e508361266b565b925060208a01995050600181019050611e2c565b50829750879550505050505092915050565b611e7f816126d9565b82525050565b611e8e816126d9565b82525050565b611e9d816126e5565b82525050565b611eac816126e5565b82525050565b611ebb8161272b565b82525050565b611eca8161273d565b82525050565b6000611edb82612653565b611ee581856126ab565b9350611ef5818560208601612782565b611efe816127b5565b840191505092915050565b6000611f1482612653565b611f1e81856126bc565b9350611f2e818560208601612782565b80840191505092915050565b6000611f4582612648565b611f4f818561269a565b9350611f5f818560208601612782565b611f68816127b5565b840191505092915050565b6000611f7e82612648565b611f8881856126ab565b9350611f98818560208601612782565b611fa1816127b5565b840191505092915050565b600081546001811660008114611fc95760018114611fee57612032565b607f6002830416611fda81876126bc565b955060ff1983168652808601935050612032565b60028204611ffc81876126bc565b95506120078561261d565b60005b828110156120295781548189015260018201915060208101905061200a565b82880195505050505b505092915050565b60006120476012836126ab565b91507f6974656d206e6f7420617661696c61626c6500000000000000000000000000006000830152602082019050919050565b60006120876013836126ab565b91507f796f7520617265206e6f7420616c6c6f776564000000000000000000000000006000830152602082019050919050565b6000610100830160008301516120d36000860182612228565b50602083015184820360208601526120eb8282611f3a565b915050604083015184820360408601526121058282611f3a565b915050606083015161211a6060860182611e94565b50608083015161212d6080860182612228565b5060a083015161214060a0860182611d6e565b5060c083015161215360c0860182611e76565b5060e083015161216660e0860182612228565b508091505092915050565b60006101008301600083015161218a6000860182612228565b50602083015184820360208601526121a28282611f3a565b915050604083015184820360408601526121bc8282611f3a565b91505060608301516121d16060860182611e94565b5060808301516121e46080860182612228565b5060a08301516121f760a0860182611d6e565b5060c083015161220a60c0860182611e76565b5060e083015161221d60e0860182612228565b508091505092915050565b6122318161270f565b82525050565b6122408161270f565b82525050565b60006122528284611f09565b915081905092915050565b60006122698284611fac565b915081905092915050565b60006020820190506122896000830184611d7d565b92915050565b60006080820190506122a46000830187611d5f565b6122b16020830186611d7d565b6122be6040830185611ec1565b6122cb6060830184611eb2565b95945050505050565b60006080820190506122e96000830187611d5f565b6122f66020830186611d7d565b6123036040830185612237565b6123106060830184611eb2565b95945050505050565b600060408201905061232e6000830185611d5f565b61233b6020830184611ec1565b9392505050565b60006040820190506123576000830185611d5f565b6123646020830184612237565b9392505050565b60006060820190506123806000830186611d7d565b61238d6020830185611d7d565b61239a6040830184612237565b949350505050565b600060208201905081810360008301526123bc8184611d8c565b905092915050565b600060208201905081810360008301526123de8184611e01565b905092915050565b60006020820190506123fb6000830184611e85565b92915050565b6000602082019050818103600083015261241b8184611f73565b905092915050565b6000602082019050818103600083015261243d8184611ed0565b905092915050565b6000606082019050818103600083015261245f8186611ed0565b905081810360208301526124738185611ed0565b90506124826040830184612237565b949350505050565b600060208201905081810360008301526124a38161203a565b9050919050565b600060208201905081810360008301526124c38161207a565b9050919050565b600060208201905081810360008301526124e481846120ba565b905092915050565b600061010082019050612502600083018b612237565b8181036020830152612514818a611f73565b905081810360408301526125288189611f73565b90506125376060830188611ea3565b6125446080830187612237565b61255160a0830186611d7d565b61255e60c0830185611e85565b61256b60e0830184612237565b9998505050505050505050565b6000604051905081810181811067ffffffffffffffff8211171561259b57600080fd5b8060405250919050565b600067ffffffffffffffff8211156125bc57600080fd5b601f19601f8301169050602081019050919050565b600067ffffffffffffffff8211156125e857600080fd5b601f19601f8301169050602081019050919050565b6000819050602082019050919050565b6000819050602082019050919050565b60008190508160005260206000209050919050565b600081519050919050565b600081519050919050565b600081519050919050565b600081519050919050565b6000602082019050919050565b6000602082019050919050565b600082825260208201905092915050565b600082825260208201905092915050565b600082825260208201905092915050565b600082825260208201905092915050565b600081905092915050565b60006126d2826126ef565b9050919050565b60008115159050919050565b6000819050919050565b600073ffffffffffffffffffffffffffffffffffffffff82169050919050565b6000819050919050565b60006127248261274f565b9050919050565b60006127368261270f565b9050919050565b60006127488261270f565b9050919050565b600061275a82612761565b9050919050565b600061276c826126ef565b9050919050565b82818337600083830152505050565b60005b838110156127a0578082015181840152602081019050612785565b838111156127af576000848401525b50505050565b6000601f19601f8301169050919050565b6127cf816126c7565b81146127da57600080fd5b50565b6127e6816126d9565b81146127f157600080fd5b50565b6127fd816126e5565b811461280857600080fd5b50565b6128148161270f565b811461281f57600080fd5b5056fea365627a7a72315820aa2f3891ffd0aee9c827fd3939015b799ad5003063a6dfbccc97ea0e4d7fcf636c6578706572696d656e74616cf564736f6c63430005100040",
  "source": "pragma solidity ^0.5.16;\r\npragma experimental ABIEncoderV2;\r\nimport './Token.sol';\r\n\r\ncontract Redeem{\r\n  Token token;\r\n  mapping (string => Item) public Items;\r\n  mapping(address => Item[]) userItems;\r\n  mapping(address => bool) User;\r\n  mapping(address => bool) public WelcomeOfferAvailed;\r\n  mapping(bytes32 => string) internal credentials;\r\n  address owner;\r\n  string [] public itemIndexes;\r\n  uint256 itemCount = 0;\r\n\r\n\r\n  constructor(Token _token) public{\r\n    token = _token;\r\n    owner = msg.sender;\r\n  }\r\n  struct Item{\r\n    uint _price;\r\n    string _name;\r\n    string _type;\r\n    bytes32 _hash;\r\n    uint _dated;\r\n    address itemOwner;\r\n    bool isAvailable;\r\n    uint index;\r\n  }\r\n\r\n  modifier onlyOwner(){\r\n      require(msg.sender == owner);\r\n      _;\r\n  }\r\n  event TokenPurchased(\r\n    address account,\r\n    address token,\r\n    uint amount,\r\n    uint rate\r\n    );\r\n  /* function deleteItem(string  memory name) internal returns(bool){\r\n    Item memory deletedItem = Items[name];\r\n    if(deletedItem.index != itemIndexes.length -1){\r\n     string memory  lastName = itemIndexes[itemIndexes.length -1];\r\n     itemIndexes[deletedItem.index] = lastName;\r\n     Items[lastName].index = deletedItem.index;\r\n    }\r\n    delete Items[name];\r\n    itemIndexes.length--;\r\n    return true;\r\n  } */\r\n\r\n  function generateItem(string memory  _type, string memory _name,  uint _price, string memory _credentials) public onlyOwner {\r\n      Item memory new_item;\r\n      new_item._name = _name;\r\n      new_item._type = _type;\r\n      new_item._price = _price;\r\n      new_item._dated = now;\r\n      new_item.itemOwner = msg.sender;\r\n      new_item.isAvailable =true;\r\n      new_item._hash = keccak256(abi.encode(_name,_type,new_item._dated));\r\n      Items[_name] = new_item;\r\n      credentials[new_item._hash] = _credentials;\r\n      itemCount = itemCount +1;\r\n      itemIndexes.push(_name);\r\n      new_item.index= itemIndexes.length-1;\r\n  }\r\n  function getItems() public returns(string [] memory){\r\n      return itemIndexes;\r\n  }\r\n\r\n  function getItem(string memory _name) view public returns(Item memory){\r\n    Item memory _item = Items[_name];\r\n    return (_item);\r\n  }\r\n\r\n  function getAllItems() view public returns (Item[] memory){\r\n    Item[] memory allItems = new Item[](itemCount);\r\n    for(uint i=0;i<itemIndexes.length;i++){\r\n      allItems[i] = Items[itemIndexes[i]];\r\n    }\r\n    return allItems;\r\n  }\r\n\r\n  function getCredentials(Item memory _item) view  public returns(string memory) {\r\n    require(msg.sender== _item.itemOwner,\"you are not allowed\");\r\n    return (credentials[_item._hash]);\r\n  }\r\n\r\n  function getUserItems(address _user) view public returns (Item[] memory){\r\n    Item[] memory allItems = new Item[](itemCount);\r\n    for(uint i=0;i<itemIndexes.length;i++){\r\n      if(Items[itemIndexes[i]].itemOwner== _user){\r\n      allItems[i] = Items[itemIndexes[i]];\r\n     }\r\n    }\r\n    return allItems;\r\n  }\r\n\r\n  function transferToken( uint amount) public {\r\n    require(token.balanceOf(address(this))>= amount);\r\n    token.transfer(msg.sender,amount);\r\n    emit TokenPurchased(msg.sender,address(token),amount,100);\r\n  }\r\n\r\n  function welcomeToken() public {\r\n    require(WelcomeOfferAvailed[msg.sender]==false);\r\n    token.transfer(msg.sender,200);\r\n    WelcomeOfferAvailed[msg.sender] = true;\r\n    emit TokenPurchased(msg.sender,address(token),200,100);\r\n  }\r\n\r\n  function redeemItem(string memory  _name, address _address) public {\r\n    uint price = Items[_name]._price;\r\n    Item storage item = Items[_name];\r\n    require(item.isAvailable,\"item not available\");\r\n    item.itemOwner = _address;\r\n    item.isAvailable=false;\r\n    token.transferFrom(_address,address(this),price);\r\n  }\r\n\r\n}\r\n",
  "sourcePath": "C:\\Users\\hp\\desktop\\myfirstreact\\src\\contracts\\Redeem.sol",
  "compiler": {
    "name": "solc",
    "version": "0.5.16+commit.9c3226ce.Emscripten.clang"
  },
  "schemaVersion": "3.0.23",
  "updatedAt": "2020-04-22T11:18:36.609Z",
  "networkType": "ethereum",
  "devdoc": {
    "methods": {}
  },
  "userdoc": {
    "methods": {}
  }
}