{
  "contractName": "Redeem",
  "abi": [
    {
      "inputs": [
        {
          "internalType": "contract Token",
          "name": "_token",
          "type": "address"
        }
      ],
      "payable": false,
      "stateMutability": "nonpayable",
      "type": "constructor"
    },
    {
      "anonymous": false,
      "inputs": [
        {
          "indexed": false,
          "internalType": "address",
          "name": "account",
          "type": "address"
        },
        {
          "indexed": false,
          "internalType": "address",
          "name": "token",
          "type": "address"
        },
        {
          "indexed": false,
          "internalType": "uint256",
          "name": "amount",
          "type": "uint256"
        },
        {
          "indexed": false,
          "internalType": "uint256",
          "name": "rate",
          "type": "uint256"
        }
      ],
      "name": "TokenPurchased",
      "type": "event"
    },
    {
      "constant": true,
      "inputs": [
        {
          "internalType": "string",
          "name": "",
          "type": "string"
        }
      ],
      "name": "Items",
      "outputs": [
        {
          "internalType": "uint256",
          "name": "_price",
          "type": "uint256"
        },
        {
          "internalType": "string",
          "name": "_name",
          "type": "string"
        },
        {
          "internalType": "string",
          "name": "_type",
          "type": "string"
        },
        {
          "internalType": "bytes32",
          "name": "_hash",
          "type": "bytes32"
        },
        {
          "internalType": "uint256",
          "name": "_dated",
          "type": "uint256"
        },
        {
          "internalType": "address",
          "name": "itemOwner",
          "type": "address"
        },
        {
          "internalType": "bool",
          "name": "isAvailable",
          "type": "bool"
        },
        {
          "internalType": "uint256",
          "name": "index",
          "type": "uint256"
        }
      ],
      "payable": false,
      "stateMutability": "view",
      "type": "function"
    },
    {
      "constant": true,
      "inputs": [
        {
          "internalType": "address",
          "name": "",
          "type": "address"
        }
      ],
      "name": "WelcomeOfferAvailed",
      "outputs": [
        {
          "internalType": "bool",
          "name": "",
          "type": "bool"
        }
      ],
      "payable": false,
      "stateMutability": "view",
      "type": "function"
    },
    {
      "constant": true,
      "inputs": [
        {
          "internalType": "uint256",
          "name": "",
          "type": "uint256"
        }
      ],
      "name": "itemIndexes",
      "outputs": [
        {
          "internalType": "string",
          "name": "",
          "type": "string"
        }
      ],
      "payable": false,
      "stateMutability": "view",
      "type": "function"
    },
    {
      "constant": false,
      "inputs": [
        {
          "internalType": "string",
          "name": "_type",
          "type": "string"
        },
        {
          "internalType": "string",
          "name": "_name",
          "type": "string"
        },
        {
          "internalType": "uint256",
          "name": "_price",
          "type": "uint256"
        },
        {
          "internalType": "string",
          "name": "_credentials",
          "type": "string"
        }
      ],
      "name": "generateItem",
      "outputs": [],
      "payable": false,
      "stateMutability": "nonpayable",
      "type": "function"
    },
    {
      "constant": false,
      "inputs": [],
      "name": "getItems",
      "outputs": [
        {
          "internalType": "string[]",
          "name": "",
          "type": "string[]"
        }
      ],
      "payable": false,
      "stateMutability": "nonpayable",
      "type": "function"
    },
    {
      "constant": true,
      "inputs": [
        {
          "internalType": "string",
          "name": "_name",
          "type": "string"
        }
      ],
      "name": "getItem",
      "outputs": [
        {
          "components": [
            {
              "internalType": "uint256",
              "name": "_price",
              "type": "uint256"
            },
            {
              "internalType": "string",
              "name": "_name",
              "type": "string"
            },
            {
              "internalType": "string",
              "name": "_type",
              "type": "string"
            },
            {
              "internalType": "bytes32",
              "name": "_hash",
              "type": "bytes32"
            },
            {
              "internalType": "uint256",
              "name": "_dated",
              "type": "uint256"
            },
            {
              "internalType": "address",
              "name": "itemOwner",
              "type": "address"
            },
            {
              "internalType": "bool",
              "name": "isAvailable",
              "type": "bool"
            },
            {
              "internalType": "uint256",
              "name": "index",
              "type": "uint256"
            }
          ],
          "internalType": "struct Redeem.Item",
          "name": "",
          "type": "tuple"
        }
      ],
      "payable": false,
      "stateMutability": "view",
      "type": "function"
    },
    {
      "constant": true,
      "inputs": [],
      "name": "getAllItems",
      "outputs": [
        {
          "components": [
            {
              "internalType": "uint256",
              "name": "_price",
              "type": "uint256"
            },
            {
              "internalType": "string",
              "name": "_name",
              "type": "string"
            },
            {
              "internalType": "string",
              "name": "_type",
              "type": "string"
            },
            {
              "internalType": "bytes32",
              "name": "_hash",
              "type": "bytes32"
            },
            {
              "internalType": "uint256",
              "name": "_dated",
              "type": "uint256"
            },
            {
              "internalType": "address",
              "name": "itemOwner",
              "type": "address"
            },
            {
              "internalType": "bool",
              "name": "isAvailable",
              "type": "bool"
            },
            {
              "internalType": "uint256",
              "name": "index",
              "type": "uint256"
            }
          ],
          "internalType": "struct Redeem.Item[]",
          "name": "",
          "type": "tuple[]"
        }
      ],
      "payable": false,
      "stateMutability": "view",
      "type": "function"
    },
    {
      "constant": true,
      "inputs": [
        {
          "components": [
            {
              "internalType": "uint256",
              "name": "_price",
              "type": "uint256"
            },
            {
              "internalType": "string",
              "name": "_name",
              "type": "string"
            },
            {
              "internalType": "string",
              "name": "_type",
              "type": "string"
            },
            {
              "internalType": "bytes32",
              "name": "_hash",
              "type": "bytes32"
            },
            {
              "internalType": "uint256",
              "name": "_dated",
              "type": "uint256"
            },
            {
              "internalType": "address",
              "name": "itemOwner",
              "type": "address"
            },
            {
              "internalType": "bool",
              "name": "isAvailable",
              "type": "bool"
            },
            {
              "internalType": "uint256",
              "name": "index",
              "type": "uint256"
            }
          ],
          "internalType": "struct Redeem.Item",
          "name": "_item",
          "type": "tuple"
        },
        {
          "internalType": "address",
          "name": "_address",
          "type": "address"
        }
      ],
      "name": "getCredentials",
      "outputs": [
        {
          "internalType": "string",
          "name": "",
          "type": "string"
        }
      ],
      "payable": false,
      "stateMutability": "view",
      "type": "function"
    },
    {
      "constant": true,
      "inputs": [
        {
          "internalType": "address",
          "name": "_user",
          "type": "address"
        }
      ],
      "name": "getUserItems",
      "outputs": [
        {
          "components": [
            {
              "internalType": "uint256",
              "name": "_price",
              "type": "uint256"
            },
            {
              "internalType": "string",
              "name": "_name",
              "type": "string"
            },
            {
              "internalType": "string",
              "name": "_type",
              "type": "string"
            },
            {
              "internalType": "bytes32",
              "name": "_hash",
              "type": "bytes32"
            },
            {
              "internalType": "uint256",
              "name": "_dated",
              "type": "uint256"
            },
            {
              "internalType": "address",
              "name": "itemOwner",
              "type": "address"
            },
            {
              "internalType": "bool",
              "name": "isAvailable",
              "type": "bool"
            },
            {
              "internalType": "uint256",
              "name": "index",
              "type": "uint256"
            }
          ],
          "internalType": "struct Redeem.Item[]",
          "name": "",
          "type": "tuple[]"
        }
      ],
      "payable": false,
      "stateMutability": "view",
      "type": "function"
    },
    {
      "constant": false,
      "inputs": [
        {
          "internalType": "uint256",
          "name": "amount",
          "type": "uint256"
        }
      ],
      "name": "transferToken",
      "outputs": [],
      "payable": false,
      "stateMutability": "nonpayable",
      "type": "function"
    },
    {
      "constant": false,
      "inputs": [],
      "name": "welcomeToken",
      "outputs": [],
      "payable": false,
      "stateMutability": "nonpayable",
      "type": "function"
    },
    {
      "constant": false,
      "inputs": [
        {
          "internalType": "string",
          "name": "_name",
          "type": "string"
        },
        {
          "internalType": "address",
          "name": "_address",
          "type": "address"
        }
      ],
      "name": "redeemItem",
      "outputs": [],
      "payable": false,
      "stateMutability": "nonpayable",
      "type": "function"
    }
  ],
  "bytecode": "0x608060405260006008553480156200001657600080fd5b50604051620029f6380380620029f683398181016040526200003c9190810190620000db565b806000806101000a81548173ffffffffffffffffffffffffffffffffffffffff021916908373ffffffffffffffffffffffffffffffffffffffff16021790555033600660006101000a81548173ffffffffffffffffffffffffffffffffffffffff021916908373ffffffffffffffffffffffffffffffffffffffff1602179055505062000169565b600081519050620000d5816200014f565b92915050565b600060208284031215620000ee57600080fd5b6000620000fe84828501620000c4565b91505092915050565b600062000114826200012f565b9050919050565b6000620001288262000107565b9050919050565b600073ffffffffffffffffffffffffffffffffffffffff82169050919050565b6200015a816200011b565b81146200016657600080fd5b50565b61287d80620001796000396000f3fe608060405234801561001057600080fd5b50600436106100b45760003560e01c80639fc71b31116100715780639fc71b3114610194578063aabe3f64146101b0578063b6010fcd146101ba578063ce6019b4146101ea578063de6e51731461021a578063fcde01651461024a576100b4565b80630dd3dc78146100b957806324e81a2f146100d557806337298bfe14610105578063410d59cc146101215780634547a6b31461013f5780634ba1d6aa14610176575b600080fd5b6100d360048036036100ce9190810190611baa565b61027a565b005b6100ef60048036036100ea9190810190611ad6565b61042a565b6040516100fc91906123fe565b60405180910390f35b61011f600480360361011a9190810190611bfe565b61044a565b005b6101296106ce565b60405161013691906123ba565b60405180910390f35b61015960048036036101549190810190611b28565b6107b7565b60405161016d989796959493929190612504565b60405180910390f35b61017e610972565b60405161018b91906123dc565b60405180910390f35b6101ae60048036036101a99190810190611cfd565b610c10565b005b6101b8610dd7565b005b6101d460048036036101cf9190810190611b69565b610f9e565b6040516101e191906124e2565b60405180910390f35b61020460048036036101ff9190810190611ad6565b6111c0565b60405161021191906123dc565b60405180910390f35b610234600480360361022f9190810190611cfd565b6114ec565b6040516102419190612419565b60405180910390f35b610264600480360361025f9190810190611ca9565b6115a5565b604051610271919061243b565b60405180910390f35b600060018360405161028c919061225e565b908152602001604051809103902060000154905060006001846040516102b2919061225e565b908152602001604051809103902090508060050160149054906101000a900460ff16610313576040517f08c379a000000000000000000000000000000000000000000000000000000000815260040161030a906124a2565b60405180910390fd5b828160050160006101000a81548173ffffffffffffffffffffffffffffffffffffffff021916908373ffffffffffffffffffffffffffffffffffffffff16021790555060008160050160146101000a81548160ff0219169083151502179055506000809054906101000a900473ffffffffffffffffffffffffffffffffffffffff1673ffffffffffffffffffffffffffffffffffffffff166323b872dd8430856040518463ffffffff1660e01b81526004016103d193929190612383565b602060405180830381600087803b1580156103eb57600080fd5b505af11580156103ff573d6000803e3d6000fd5b505050506040513d601f19601f820116820180604052506104239190810190611aff565b5050505050565b60046020528060005260406000206000915054906101000a900460ff1681565b600660009054906101000a900473ffffffffffffffffffffffffffffffffffffffff1673ffffffffffffffffffffffffffffffffffffffff163373ffffffffffffffffffffffffffffffffffffffff16146104a457600080fd5b6104ac6116d5565b8381602001819052508481604001819052508281600001818152505042816080018181525050338160a0019073ffffffffffffffffffffffffffffffffffffffff16908173ffffffffffffffffffffffffffffffffffffffff168152505060018160c0019015159081151581525050838582608001516040516020016105349392919061245d565b6040516020818303038152906040528051906020012081606001818152505080600185604051610564919061225e565b9081526020016040518091039020600082015181600001556020820151816001019080519060200190610598929190611735565b5060408201518160020190805190602001906105b5929190611735565b50606082015181600301556080820151816004015560a08201518160050160006101000a81548173ffffffffffffffffffffffffffffffffffffffff021916908373ffffffffffffffffffffffffffffffffffffffff16021790555060c08201518160050160146101000a81548160ff02191690831515021790555060e0820151816006015590505081600560008360600151815260200190815260200160002090805190602001906106699291906117b5565b5060016008540160088190555060078490806001815401808255809150509060018203906000526020600020016000909192909190915090805190602001906106b39291906117b5565b50506001600780549050038160e00181815250505050505050565b60606007805480602002602001604051908101604052809291908181526020016000905b828210156107ae578382906000526020600020018054600181600116156101000203166002900480601f01602080910402602001604051908101604052809291908181526020018280546001816001161561010002031660029004801561079a5780601f1061076f5761010080835404028352916020019161079a565b820191906000526020600020905b81548152906001019060200180831161077d57829003601f168201915b5050505050815260200190600101906106f2565b50505050905090565b600181805160208101820180518482526020830160208501208183528095505050505050600091509050806000015490806001018054600181600116156101000203166002900480601f01602080910402602001604051908101604052809291908181526020018280546001816001161561010002031660029004801561087f5780601f106108545761010080835404028352916020019161087f565b820191906000526020600020905b81548152906001019060200180831161086257829003601f168201915b505050505090806002018054600181600116156101000203166002900480601f01602080910402602001604051908101604052809291908181526020018280546001816001161561010002031660029004801561091d5780601f106108f25761010080835404028352916020019161091d565b820191906000526020600020905b81548152906001019060200180831161090057829003601f168201915b5050505050908060030154908060040154908060050160009054906101000a900473ffffffffffffffffffffffffffffffffffffffff16908060050160149054906101000a900460ff16908060060154905088565b6060806008546040519080825280602002602001820160405280156109b157816020015b61099e611835565b8152602001906001900390816109965790505b50905060008090505b600780549050811015610c08576001600782815481106109d657fe5b906000526020600020016040516109ed9190612275565b90815260200160405180910390206040518061010001604052908160008201548152602001600182018054600181600116156101000203166002900480601f016020809104026020016040519081016040528092919081815260200182805460018160011615610100020316600290048015610aaa5780601f10610a7f57610100808354040283529160200191610aaa565b820191906000526020600020905b815481529060010190602001808311610a8d57829003601f168201915b50505050508152602001600282018054600181600116156101000203166002900480601f016020809104026020016040519081016040528092919081815260200182805460018160011615610100020316600290048015610b4c5780601f10610b2157610100808354040283529160200191610b4c565b820191906000526020600020905b815481529060010190602001808311610b2f57829003601f168201915b5050505050815260200160038201548152602001600482015481526020016005820160009054906101000a900473ffffffffffffffffffffffffffffffffffffffff1673ffffffffffffffffffffffffffffffffffffffff1673ffffffffffffffffffffffffffffffffffffffff1681526020016005820160149054906101000a900460ff16151515158152602001600682015481525050828281518110610bf057fe5b602002602001018190525080806001019150506109ba565b508091505090565b806000809054906101000a900473ffffffffffffffffffffffffffffffffffffffff1673ffffffffffffffffffffffffffffffffffffffff166370a08231306040518263ffffffff1660e01b8152600401610c6b919061228c565b60206040518083038186803b158015610c8357600080fd5b505afa158015610c97573d6000803e3d6000fd5b505050506040513d601f19601f82011682018060405250610cbb9190810190611d26565b1015610cc657600080fd5b6000809054906101000a900473ffffffffffffffffffffffffffffffffffffffff1673ffffffffffffffffffffffffffffffffffffffff1663a9059cbb33836040518363ffffffff1660e01b8152600401610d2292919061235a565b602060405180830381600087803b158015610d3c57600080fd5b505af1158015610d50573d6000803e3d6000fd5b505050506040513d601f19601f82011682018060405250610d749190810190611aff565b507f8daf503382665d950e449b86172be5222275c90f4ddf69c29fdaa8237a562a6d336000809054906101000a900473ffffffffffffffffffffffffffffffffffffffff16836064604051610dcc94939291906122ec565b60405180910390a150565b60001515600460003373ffffffffffffffffffffffffffffffffffffffff1673ffffffffffffffffffffffffffffffffffffffff16815260200190815260200160002060009054906101000a900460ff16151514610e3457600080fd5b6000809054906101000a900473ffffffffffffffffffffffffffffffffffffffff1673ffffffffffffffffffffffffffffffffffffffff1663a9059cbb3360c86040518363ffffffff1660e01b8152600401610e91929190612331565b602060405180830381600087803b158015610eab57600080fd5b505af1158015610ebf573d6000803e3d6000fd5b505050506040513d601f19601f82011682018060405250610ee39190810190611aff565b506001600460003373ffffffffffffffffffffffffffffffffffffffff1673ffffffffffffffffffffffffffffffffffffffff16815260200190815260200160002060006101000a81548160ff0219169083151502179055507f8daf503382665d950e449b86172be5222275c90f4ddf69c29fdaa8237a562a6d336000809054906101000a900473ffffffffffffffffffffffffffffffffffffffff1660c86064604051610f9494939291906122a7565b60405180910390a1565b610fa66116d5565b610fae6116d5565b600183604051610fbe919061225e565b90815260200160405180910390206040518061010001604052908160008201548152602001600182018054600181600116156101000203166002900480601f01602080910402602001604051908101604052809291908181526020018280546001816001161561010002031660029004801561107b5780601f106110505761010080835404028352916020019161107b565b820191906000526020600020905b81548152906001019060200180831161105e57829003601f168201915b50505050508152602001600282018054600181600116156101000203166002900480601f01602080910402602001604051908101604052809291908181526020018280546001816001161561010002031660029004801561111d5780601f106110f25761010080835404028352916020019161111d565b820191906000526020600020905b81548152906001019060200180831161110057829003601f168201915b5050505050815260200160038201548152602001600482015481526020016005820160009054906101000a900473ffffffffffffffffffffffffffffffffffffffff1673ffffffffffffffffffffffffffffffffffffffff1673ffffffffffffffffffffffffffffffffffffffff1681526020016005820160149054906101000a900460ff16151515158152602001600682015481525050905080915050919050565b6060806008546040519080825280602002602001820160405280156111ff57816020015b6111ec611835565b8152602001906001900390816111e45790505b50905060008090505b6007805490508110156114e2578373ffffffffffffffffffffffffffffffffffffffff1660016007838154811061123b57fe5b906000526020600020016040516112529190612275565b908152602001604051809103902060050160009054906101000a900473ffffffffffffffffffffffffffffffffffffffff1673ffffffffffffffffffffffffffffffffffffffff1614156114d5576001600782815481106112af57fe5b906000526020600020016040516112c69190612275565b90815260200160405180910390206040518061010001604052908160008201548152602001600182018054600181600116156101000203166002900480601f0160208091040260200160405190810160405280929190818152602001828054600181600116156101000203166002900480156113835780601f1061135857610100808354040283529160200191611383565b820191906000526020600020905b81548152906001019060200180831161136657829003601f168201915b50505050508152602001600282018054600181600116156101000203166002900480601f0160208091040260200160405190810160405280929190818152602001828054600181600116156101000203166002900480156114255780601f106113fa57610100808354040283529160200191611425565b820191906000526020600020905b81548152906001019060200180831161140857829003601f168201915b5050505050815260200160038201548152602001600482015481526020016005820160009054906101000a900473ffffffffffffffffffffffffffffffffffffffff1673ffffffffffffffffffffffffffffffffffffffff1673ffffffffffffffffffffffffffffffffffffffff1681526020016005820160149054906101000a900460ff161515151581526020016006820154815250508282815181106114c957fe5b60200260200101819052505b8080600101915050611208565b5080915050919050565b600781815481106114f957fe5b906000526020600020016000915090508054600181600116156101000203166002900480601f01602080910402602001604051908101604052809291908181526020018280546001816001161561010002031660029004801561159d5780601f106115725761010080835404028352916020019161159d565b820191906000526020600020905b81548152906001019060200180831161158057829003601f168201915b505050505081565b606082828160a0015173ffffffffffffffffffffffffffffffffffffffff168173ffffffffffffffffffffffffffffffffffffffff161461161b576040517f08c379a0000000000000000000000000000000000000000000000000000000008152600401611612906124c2565b60405180910390fd5b60056000866060015181526020019081526020016000208054600181600116156101000203166002900480601f0160208091040260200160405190810160405280929190818152602001828054600181600116156101000203166002900480156116c65780601f1061169b576101008083540402835291602001916116c6565b820191906000526020600020905b8154815290600101906020018083116116a957829003601f168201915b50505050509250505092915050565b6040518061010001604052806000815260200160608152602001606081526020016000801916815260200160008152602001600073ffffffffffffffffffffffffffffffffffffffff168152602001600015158152602001600081525090565b828054600181600116156101000203166002900490600052602060002090601f016020900481019282601f1061177657805160ff19168380011785556117a4565b828001600101855582156117a4579182015b828111156117a3578251825591602001919060010190611788565b5b5090506117b19190611895565b5090565b828054600181600116156101000203166002900490600052602060002090601f016020900481019282601f106117f657805160ff1916838001178555611824565b82800160010185558215611824579182015b82811115611823578251825591602001919060010190611808565b5b5090506118319190611895565b5090565b6040518061010001604052806000815260200160608152602001606081526020016000801916815260200160008152602001600073ffffffffffffffffffffffffffffffffffffffff168152602001600015158152602001600081525090565b6118b791905b808211156118b357600081600090555060010161189b565b5090565b90565b6000813590506118c9816127de565b92915050565b6000813590506118de816127f5565b92915050565b6000815190506118f3816127f5565b92915050565b6000813590506119088161280c565b92915050565b600082601f83011261191f57600080fd5b813561193261192d826125bd565b612590565b9150808252602083016020830185838301111561194e57600080fd5b61195983828461278b565b50505092915050565b600082601f83011261197357600080fd5b8135611986611981826125e9565b612590565b915080825260208301602083018583830111156119a257600080fd5b6119ad83828461278b565b50505092915050565b600061010082840312156119c957600080fd5b6119d4610100612590565b905060006119e484828501611aac565b600083015250602082013567ffffffffffffffff811115611a0457600080fd5b611a108482850161190e565b602083015250604082013567ffffffffffffffff811115611a3057600080fd5b611a3c8482850161190e565b6040830152506060611a50848285016118f9565b6060830152506080611a6484828501611aac565b60808301525060a0611a78848285016118ba565b60a08301525060c0611a8c848285016118cf565b60c08301525060e0611aa084828501611aac565b60e08301525092915050565b600081359050611abb81612823565b92915050565b600081519050611ad081612823565b92915050565b600060208284031215611ae857600080fd5b6000611af6848285016118ba565b91505092915050565b600060208284031215611b1157600080fd5b6000611b1f848285016118e4565b91505092915050565b600060208284031215611b3a57600080fd5b600082013567ffffffffffffffff811115611b5457600080fd5b611b608482850161190e565b91505092915050565b600060208284031215611b7b57600080fd5b600082013567ffffffffffffffff811115611b9557600080fd5b611ba184828501611962565b91505092915050565b60008060408385031215611bbd57600080fd5b600083013567ffffffffffffffff811115611bd757600080fd5b611be385828601611962565b9250506020611bf4858286016118ba565b9150509250929050565b60008060008060808587031215611c1457600080fd5b600085013567ffffffffffffffff811115611c2e57600080fd5b611c3a87828801611962565b945050602085013567ffffffffffffffff811115611c5757600080fd5b611c6387828801611962565b9350506040611c7487828801611aac565b925050606085013567ffffffffffffffff811115611c9157600080fd5b611c9d87828801611962565b91505092959194509250565b60008060408385031215611cbc57600080fd5b600083013567ffffffffffffffff811115611cd657600080fd5b611ce2858286016119b6565b9250506020611cf3858286016118ba565b9150509250929050565b600060208284031215611d0f57600080fd5b6000611d1d84828501611aac565b91505092915050565b600060208284031215611d3857600080fd5b6000611d4684828501611ac1565b91505092915050565b6000611d5b8383611f52565b905092915050565b6000611d6f8383612189565b905092915050565b611d8081612731565b82525050565b611d8f816126df565b82525050565b611d9e816126df565b82525050565b6000611daf8261264a565b611db98185612690565b935083602082028501611dcb85612615565b8060005b85811015611e075784840389528151611de88582611d4f565b9450611df383612676565b925060208a01995050600181019050611dcf565b50829750879550505050505092915050565b6000611e2482612655565b611e2e81856126a1565b935083602082028501611e4085612625565b8060005b85811015611e7c5784840389528151611e5d8582611d63565b9450611e6883612683565b925060208a01995050600181019050611e44565b50829750879550505050505092915050565b611e97816126f1565b82525050565b611ea6816126f1565b82525050565b611eb5816126fd565b82525050565b611ec4816126fd565b82525050565b611ed381612743565b82525050565b611ee281612755565b82525050565b6000611ef38261266b565b611efd81856126c3565b9350611f0d81856020860161279a565b611f16816127cd565b840191505092915050565b6000611f2c8261266b565b611f3681856126d4565b9350611f4681856020860161279a565b80840191505092915050565b6000611f5d82612660565b611f6781856126b2565b9350611f7781856020860161279a565b611f80816127cd565b840191505092915050565b6000611f9682612660565b611fa081856126c3565b9350611fb081856020860161279a565b611fb9816127cd565b840191505092915050565b600081546001811660008114611fe157600181146120065761204a565b607f6002830416611ff281876126d4565b955060ff198316865280860193505061204a565b6002820461201481876126d4565b955061201f85612635565b60005b8281101561204157815481890152600182019150602081019050612022565b82880195505050505b505092915050565b600061205f6012836126c3565b91507f6974656d206e6f7420617661696c61626c6500000000000000000000000000006000830152602082019050919050565b600061209f6013836126c3565b91507f796f7520617265206e6f7420616c6c6f776564000000000000000000000000006000830152602082019050919050565b6000610100830160008301516120eb6000860182612240565b50602083015184820360208601526121038282611f52565b9150506040830151848203604086015261211d8282611f52565b91505060608301516121326060860182611eac565b5060808301516121456080860182612240565b5060a083015161215860a0860182611d86565b5060c083015161216b60c0860182611e8e565b5060e083015161217e60e0860182612240565b508091505092915050565b6000610100830160008301516121a26000860182612240565b50602083015184820360208601526121ba8282611f52565b915050604083015184820360408601526121d48282611f52565b91505060608301516121e96060860182611eac565b5060808301516121fc6080860182612240565b5060a083015161220f60a0860182611d86565b5060c083015161222260c0860182611e8e565b5060e083015161223560e0860182612240565b508091505092915050565b61224981612727565b82525050565b61225881612727565b82525050565b600061226a8284611f21565b915081905092915050565b60006122818284611fc4565b915081905092915050565b60006020820190506122a16000830184611d95565b92915050565b60006080820190506122bc6000830187611d77565b6122c96020830186611d95565b6122d66040830185611ed9565b6122e36060830184611eca565b95945050505050565b60006080820190506123016000830187611d77565b61230e6020830186611d95565b61231b604083018561224f565b6123286060830184611eca565b95945050505050565b60006040820190506123466000830185611d77565b6123536020830184611ed9565b9392505050565b600060408201905061236f6000830185611d77565b61237c602083018461224f565b9392505050565b60006060820190506123986000830186611d95565b6123a56020830185611d95565b6123b2604083018461224f565b949350505050565b600060208201905081810360008301526123d48184611da4565b905092915050565b600060208201905081810360008301526123f68184611e19565b905092915050565b60006020820190506124136000830184611e9d565b92915050565b600060208201905081810360008301526124338184611f8b565b905092915050565b600060208201905081810360008301526124558184611ee8565b905092915050565b600060608201905081810360008301526124778186611ee8565b9050818103602083015261248b8185611ee8565b905061249a604083018461224f565b949350505050565b600060208201905081810360008301526124bb81612052565b9050919050565b600060208201905081810360008301526124db81612092565b9050919050565b600060208201905081810360008301526124fc81846120d2565b905092915050565b60006101008201905061251a600083018b61224f565b818103602083015261252c818a611f8b565b905081810360408301526125408189611f8b565b905061254f6060830188611ebb565b61255c608083018761224f565b61256960a0830186611d95565b61257660c0830185611e9d565b61258360e083018461224f565b9998505050505050505050565b6000604051905081810181811067ffffffffffffffff821117156125b357600080fd5b8060405250919050565b600067ffffffffffffffff8211156125d457600080fd5b601f19601f8301169050602081019050919050565b600067ffffffffffffffff82111561260057600080fd5b601f19601f8301169050602081019050919050565b6000819050602082019050919050565b6000819050602082019050919050565b60008190508160005260206000209050919050565b600081519050919050565b600081519050919050565b600081519050919050565b600081519050919050565b6000602082019050919050565b6000602082019050919050565b600082825260208201905092915050565b600082825260208201905092915050565b600082825260208201905092915050565b600082825260208201905092915050565b600081905092915050565b60006126ea82612707565b9050919050565b60008115159050919050565b6000819050919050565b600073ffffffffffffffffffffffffffffffffffffffff82169050919050565b6000819050919050565b600061273c82612767565b9050919050565b600061274e82612727565b9050919050565b600061276082612727565b9050919050565b600061277282612779565b9050919050565b600061278482612707565b9050919050565b82818337600083830152505050565b60005b838110156127b857808201518184015260208101905061279d565b838111156127c7576000848401525b50505050565b6000601f19601f8301169050919050565b6127e7816126df565b81146127f257600080fd5b50565b6127fe816126f1565b811461280957600080fd5b50565b612815816126fd565b811461282057600080fd5b50565b61282c81612727565b811461283757600080fd5b5056fea365627a7a72315820e5776e6058085c623cba26c1132b7cd59e673286f3b1f26a19af71ef0a974b5a6c6578706572696d656e74616cf564736f6c63430005100040",
  "source": "pragma solidity ^0.5.16;\r\npragma experimental ABIEncoderV2;\r\nimport './Token.sol';\r\n\r\ncontract Redeem{\r\n  Token token;\r\n  mapping (string => Item) public Items;\r\n  mapping(address => Item[]) userItems;\r\n  mapping(address => bool) User;\r\n  mapping(address => bool) public WelcomeOfferAvailed;\r\n  mapping(bytes32 => string) internal credentials;\r\n  address owner;\r\n  string [] public itemIndexes;\r\n  uint256 itemCount = 0;\r\n\r\n\r\n  constructor(Token _token) public{\r\n    token = _token;\r\n    owner = msg.sender;\r\n  }\r\n  struct Item{\r\n    uint _price;\r\n    string _name;\r\n    string _type;\r\n    bytes32 _hash;\r\n    uint _dated;\r\n    address itemOwner;\r\n    bool isAvailable;\r\n    uint index;\r\n  }\r\n\r\n  modifier onlyOwner(){\r\n      require(msg.sender == owner);\r\n      _;\r\n  }\r\n  modifier itemOwner(Item memory _item,address _address){\r\n    require(_address== _item.itemOwner,\"you are not allowed\");\r\n    _;\r\n  }\r\n  event TokenPurchased(\r\n    address account,\r\n    address token,\r\n    uint amount,\r\n    uint rate\r\n    );\r\n  /* function deleteItem(string  memory name) internal returns(bool){\r\n    Item memory deletedItem = Items[name];\r\n    if(deletedItem.index != itemIndexes.length -1){\r\n     string memory  lastName = itemIndexes[itemIndexes.length -1];\r\n     itemIndexes[deletedItem.index] = lastName;\r\n     Items[lastName].index = deletedItem.index;\r\n    }\r\n    delete Items[name];\r\n    itemIndexes.length--;\r\n    return true;\r\n  } */\r\n\r\n  function generateItem(string memory  _type, string memory _name,  uint _price, string memory _credentials) public onlyOwner {\r\n      Item memory new_item;\r\n      new_item._name = _name;\r\n      new_item._type = _type;\r\n      new_item._price = _price;\r\n      new_item._dated = now;\r\n      new_item.itemOwner = msg.sender;\r\n      new_item.isAvailable =true;\r\n      new_item._hash = keccak256(abi.encode(_name,_type,new_item._dated));\r\n      Items[_name] = new_item;\r\n      credentials[new_item._hash] = _credentials;\r\n      itemCount = itemCount +1;\r\n      itemIndexes.push(_name);\r\n      new_item.index= itemIndexes.length-1;\r\n  }\r\n  function getItems() public returns(string [] memory){\r\n      return itemIndexes;\r\n  }\r\n\r\n  function getItem(string memory _name) view public returns(Item memory){\r\n    Item memory _item = Items[_name];\r\n    return (_item);\r\n  }\r\n\r\n  function getAllItems() view public returns (Item[] memory){\r\n    Item[] memory allItems = new Item[](itemCount);\r\n    for(uint i=0;i<itemIndexes.length;i++){\r\n      allItems[i] = Items[itemIndexes[i]];\r\n    }\r\n    return allItems;\r\n  }\r\n\r\n  function getCredentials(Item memory _item,address _address) view  public itemOwner(_item,_address) returns(string memory) {\r\n    return (credentials[_item._hash]);\r\n  }\r\n\r\n  function getUserItems(address _user) view public returns (Item[] memory){\r\n    Item[] memory allItems = new Item[](itemCount);\r\n    for(uint i=0;i<itemIndexes.length;i++){\r\n      if(Items[itemIndexes[i]].itemOwner== _user){\r\n      allItems[i] = Items[itemIndexes[i]];\r\n     }\r\n    }\r\n    return allItems;\r\n  }\r\n\r\n  function transferToken( uint amount) public {\r\n    require(token.balanceOf(address(this))>= amount);\r\n    token.transfer(msg.sender,amount);\r\n    emit TokenPurchased(msg.sender,address(token),amount,100);\r\n  }\r\n\r\n  function welcomeToken() public {\r\n    require(WelcomeOfferAvailed[msg.sender]==false);\r\n    token.transfer(msg.sender,200);\r\n    WelcomeOfferAvailed[msg.sender] = true;\r\n    emit TokenPurchased(msg.sender,address(token),200,100);\r\n  }\r\n\r\n  function redeemItem(string memory  _name, address _address) public {\r\n    uint price = Items[_name]._price;\r\n    Item storage item = Items[_name];\r\n    require(item.isAvailable,\"item not available\");\r\n    item.itemOwner = _address;\r\n    item.isAvailable=false;\r\n    token.transferFrom(_address,address(this),price);\r\n  }\r\n\r\n}\r\n",
  "sourcePath": "C:\\Users\\hp\\desktop\\myfirstreact\\src\\contracts\\Redeem.sol",
  "compiler": {
    "name": "solc",
    "version": "0.5.16+commit.9c3226ce.Emscripten.clang"
  },
  "schemaVersion": "3.0.23",
  "updatedAt": "2020-04-21T18:08:54.078Z",
  "networkType": "ethereum",
  "devdoc": {
    "methods": {}
  },
  "userdoc": {
    "methods": {}
  }
}