{
  "contractName": "Redeem",
  "abi": [
    {
      "inputs": [
        {
          "internalType": "contract Token",
          "name": "_token",
          "type": "address"
        }
      ],
      "payable": false,
      "stateMutability": "nonpayable",
      "type": "constructor"
    },
    {
      "anonymous": false,
      "inputs": [
        {
          "indexed": false,
          "internalType": "address",
          "name": "account",
          "type": "address"
        },
        {
          "indexed": false,
          "internalType": "address",
          "name": "token",
          "type": "address"
        },
        {
          "indexed": false,
          "internalType": "uint256",
          "name": "amount",
          "type": "uint256"
        },
        {
          "indexed": false,
          "internalType": "uint256",
          "name": "rate",
          "type": "uint256"
        }
      ],
      "name": "TokenPurchased",
      "type": "event"
    },
    {
      "constant": true,
      "inputs": [
        {
          "internalType": "string",
          "name": "",
          "type": "string"
        }
      ],
      "name": "Items",
      "outputs": [
        {
          "internalType": "uint256",
          "name": "_price",
          "type": "uint256"
        },
        {
          "internalType": "string",
          "name": "_name",
          "type": "string"
        },
        {
          "internalType": "string",
          "name": "_type",
          "type": "string"
        },
        {
          "internalType": "bytes32",
          "name": "_hash",
          "type": "bytes32"
        },
        {
          "internalType": "uint256",
          "name": "_dated",
          "type": "uint256"
        },
        {
          "internalType": "address",
          "name": "itemOwner",
          "type": "address"
        },
        {
          "internalType": "bool",
          "name": "isAvailable",
          "type": "bool"
        },
        {
          "internalType": "uint256",
          "name": "index",
          "type": "uint256"
        }
      ],
      "payable": false,
      "stateMutability": "view",
      "type": "function"
    },
    {
      "constant": true,
      "inputs": [
        {
          "internalType": "address",
          "name": "",
          "type": "address"
        }
      ],
      "name": "WelcomeOfferAvailed",
      "outputs": [
        {
          "internalType": "bool",
          "name": "",
          "type": "bool"
        }
      ],
      "payable": false,
      "stateMutability": "view",
      "type": "function"
    },
    {
      "constant": true,
      "inputs": [
        {
          "internalType": "uint256",
          "name": "",
          "type": "uint256"
        }
      ],
      "name": "itemIndexes",
      "outputs": [
        {
          "internalType": "string",
          "name": "",
          "type": "string"
        }
      ],
      "payable": false,
      "stateMutability": "view",
      "type": "function"
    },
    {
      "constant": false,
      "inputs": [
        {
          "internalType": "string",
          "name": "_type",
          "type": "string"
        },
        {
          "internalType": "string",
          "name": "_name",
          "type": "string"
        },
        {
          "internalType": "uint256",
          "name": "_price",
          "type": "uint256"
        },
        {
          "internalType": "string",
          "name": "_credentials",
          "type": "string"
        }
      ],
      "name": "generateItem",
      "outputs": [],
      "payable": false,
      "stateMutability": "nonpayable",
      "type": "function"
    },
    {
      "constant": false,
      "inputs": [],
      "name": "getItems",
      "outputs": [
        {
          "internalType": "string[]",
          "name": "",
          "type": "string[]"
        }
      ],
      "payable": false,
      "stateMutability": "nonpayable",
      "type": "function"
    },
    {
      "constant": true,
      "inputs": [
        {
          "internalType": "string",
          "name": "_name",
          "type": "string"
        }
      ],
      "name": "getItem",
      "outputs": [
        {
          "components": [
            {
              "internalType": "uint256",
              "name": "_price",
              "type": "uint256"
            },
            {
              "internalType": "string",
              "name": "_name",
              "type": "string"
            },
            {
              "internalType": "string",
              "name": "_type",
              "type": "string"
            },
            {
              "internalType": "bytes32",
              "name": "_hash",
              "type": "bytes32"
            },
            {
              "internalType": "uint256",
              "name": "_dated",
              "type": "uint256"
            },
            {
              "internalType": "address",
              "name": "itemOwner",
              "type": "address"
            },
            {
              "internalType": "bool",
              "name": "isAvailable",
              "type": "bool"
            },
            {
              "internalType": "uint256",
              "name": "index",
              "type": "uint256"
            }
          ],
          "internalType": "struct Redeem.Item",
          "name": "",
          "type": "tuple"
        }
      ],
      "payable": false,
      "stateMutability": "view",
      "type": "function"
    },
    {
      "constant": true,
      "inputs": [],
      "name": "getAllItems",
      "outputs": [
        {
          "components": [
            {
              "internalType": "uint256",
              "name": "_price",
              "type": "uint256"
            },
            {
              "internalType": "string",
              "name": "_name",
              "type": "string"
            },
            {
              "internalType": "string",
              "name": "_type",
              "type": "string"
            },
            {
              "internalType": "bytes32",
              "name": "_hash",
              "type": "bytes32"
            },
            {
              "internalType": "uint256",
              "name": "_dated",
              "type": "uint256"
            },
            {
              "internalType": "address",
              "name": "itemOwner",
              "type": "address"
            },
            {
              "internalType": "bool",
              "name": "isAvailable",
              "type": "bool"
            },
            {
              "internalType": "uint256",
              "name": "index",
              "type": "uint256"
            }
          ],
          "internalType": "struct Redeem.Item[]",
          "name": "",
          "type": "tuple[]"
        }
      ],
      "payable": false,
      "stateMutability": "view",
      "type": "function"
    },
    {
      "constant": true,
      "inputs": [
        {
          "components": [
            {
              "internalType": "uint256",
              "name": "_price",
              "type": "uint256"
            },
            {
              "internalType": "string",
              "name": "_name",
              "type": "string"
            },
            {
              "internalType": "string",
              "name": "_type",
              "type": "string"
            },
            {
              "internalType": "bytes32",
              "name": "_hash",
              "type": "bytes32"
            },
            {
              "internalType": "uint256",
              "name": "_dated",
              "type": "uint256"
            },
            {
              "internalType": "address",
              "name": "itemOwner",
              "type": "address"
            },
            {
              "internalType": "bool",
              "name": "isAvailable",
              "type": "bool"
            },
            {
              "internalType": "uint256",
              "name": "index",
              "type": "uint256"
            }
          ],
          "internalType": "struct Redeem.Item",
          "name": "_item",
          "type": "tuple"
        }
      ],
      "name": "getCredentials",
      "outputs": [
        {
          "internalType": "string",
          "name": "",
          "type": "string"
        }
      ],
      "payable": false,
      "stateMutability": "view",
      "type": "function"
    },
    {
      "constant": true,
      "inputs": [
        {
          "internalType": "address",
          "name": "_user",
          "type": "address"
        }
      ],
      "name": "getUserItems",
      "outputs": [
        {
          "components": [
            {
              "internalType": "uint256",
              "name": "_price",
              "type": "uint256"
            },
            {
              "internalType": "string",
              "name": "_name",
              "type": "string"
            },
            {
              "internalType": "string",
              "name": "_type",
              "type": "string"
            },
            {
              "internalType": "bytes32",
              "name": "_hash",
              "type": "bytes32"
            },
            {
              "internalType": "uint256",
              "name": "_dated",
              "type": "uint256"
            },
            {
              "internalType": "address",
              "name": "itemOwner",
              "type": "address"
            },
            {
              "internalType": "bool",
              "name": "isAvailable",
              "type": "bool"
            },
            {
              "internalType": "uint256",
              "name": "index",
              "type": "uint256"
            }
          ],
          "internalType": "struct Redeem.Item[]",
          "name": "",
          "type": "tuple[]"
        }
      ],
      "payable": false,
      "stateMutability": "view",
      "type": "function"
    },
    {
      "constant": false,
      "inputs": [
        {
          "internalType": "uint256",
          "name": "amount",
          "type": "uint256"
        }
      ],
      "name": "transferToken",
      "outputs": [],
      "payable": false,
      "stateMutability": "nonpayable",
      "type": "function"
    },
    {
      "constant": false,
      "inputs": [],
      "name": "welcomeToken",
      "outputs": [],
      "payable": false,
      "stateMutability": "nonpayable",
      "type": "function"
    },
    {
      "constant": false,
      "inputs": [
        {
          "internalType": "string",
          "name": "_name",
          "type": "string"
        },
        {
          "internalType": "address",
          "name": "_address",
          "type": "address"
        }
      ],
      "name": "redeemItem",
      "outputs": [],
      "payable": false,
      "stateMutability": "nonpayable",
      "type": "function"
    }
  ],
  "bytecode": "0x608060405260006008553480156200001657600080fd5b50604051620029e0380380620029e083398181016040526200003c9190810190620000db565b806000806101000a81548173ffffffffffffffffffffffffffffffffffffffff021916908373ffffffffffffffffffffffffffffffffffffffff16021790555033600660006101000a81548173ffffffffffffffffffffffffffffffffffffffff021916908373ffffffffffffffffffffffffffffffffffffffff1602179055505062000169565b600081519050620000d5816200014f565b92915050565b600060208284031215620000ee57600080fd5b6000620000fe84828501620000c4565b91505092915050565b600062000114826200012f565b9050919050565b6000620001288262000107565b9050919050565b600073ffffffffffffffffffffffffffffffffffffffff82169050919050565b6200015a816200011b565b81146200016657600080fd5b50565b61286780620001796000396000f3fe608060405234801561001057600080fd5b50600436106100b45760003560e01c80639fc71b31116100715780639fc71b3114610194578063aabe3f64146101b0578063b6010fcd146101ba578063ce6019b4146101ea578063d8b53c9c1461021a578063de6e51731461024a576100b4565b80630dd3dc78146100b957806324e81a2f146100d557806337298bfe14610105578063410d59cc146101215780634547a6b31461013f5780634ba1d6aa14610176575b600080fd5b6100d360048036036100ce9190810190611ba7565b61027a565b005b6100ef60048036036100ea9190810190611ad3565b61042a565b6040516100fc91906123e8565b60405180910390f35b61011f600480360361011a9190810190611bfb565b61044a565b005b6101296106ce565b60405161013691906123a4565b60405180910390f35b61015960048036036101549190810190611b25565b6107b7565b60405161016d9897969594939291906124ee565b60405180910390f35b61017e610972565b60405161018b91906123c6565b60405180910390f35b6101ae60048036036101a99190810190611ce7565b610c10565b005b6101b8610dd7565b005b6101d460048036036101cf9190810190611b66565b610f9e565b6040516101e191906124cc565b60405180910390f35b61020460048036036101ff9190810190611ad3565b6111c0565b60405161021191906123c6565b60405180910390f35b610234600480360361022f9190810190611ca6565b6114ec565b6040516102419190612425565b60405180910390f35b610264600480360361025f9190810190611ce7565b611619565b6040516102719190612403565b60405180910390f35b600060018360405161028c9190612248565b908152602001604051809103902060000154905060006001846040516102b29190612248565b908152602001604051809103902090508060050160149054906101000a900460ff16610313576040517f08c379a000000000000000000000000000000000000000000000000000000000815260040161030a9061248c565b60405180910390fd5b828160050160006101000a81548173ffffffffffffffffffffffffffffffffffffffff021916908373ffffffffffffffffffffffffffffffffffffffff16021790555060008160050160146101000a81548160ff0219169083151502179055506000809054906101000a900473ffffffffffffffffffffffffffffffffffffffff1673ffffffffffffffffffffffffffffffffffffffff166323b872dd8430856040518463ffffffff1660e01b81526004016103d19392919061236d565b602060405180830381600087803b1580156103eb57600080fd5b505af11580156103ff573d6000803e3d6000fd5b505050506040513d601f19601f820116820180604052506104239190810190611afc565b5050505050565b60046020528060005260406000206000915054906101000a900460ff1681565b600660009054906101000a900473ffffffffffffffffffffffffffffffffffffffff1673ffffffffffffffffffffffffffffffffffffffff163373ffffffffffffffffffffffffffffffffffffffff16146104a457600080fd5b6104ac6116d2565b8381602001819052508481604001819052508281600001818152505042816080018181525050338160a0019073ffffffffffffffffffffffffffffffffffffffff16908173ffffffffffffffffffffffffffffffffffffffff168152505060018160c00190151590811515815250508385826080015160405160200161053493929190612447565b60405160208183030381529060405280519060200120816060018181525050806001856040516105649190612248565b9081526020016040518091039020600082015181600001556020820151816001019080519060200190610598929190611732565b5060408201518160020190805190602001906105b5929190611732565b50606082015181600301556080820151816004015560a08201518160050160006101000a81548173ffffffffffffffffffffffffffffffffffffffff021916908373ffffffffffffffffffffffffffffffffffffffff16021790555060c08201518160050160146101000a81548160ff02191690831515021790555060e0820151816006015590505081600560008360600151815260200190815260200160002090805190602001906106699291906117b2565b5060016008540160088190555060078490806001815401808255809150509060018203906000526020600020016000909192909190915090805190602001906106b39291906117b2565b50506001600780549050038160e00181815250505050505050565b60606007805480602002602001604051908101604052809291908181526020016000905b828210156107ae578382906000526020600020018054600181600116156101000203166002900480601f01602080910402602001604051908101604052809291908181526020018280546001816001161561010002031660029004801561079a5780601f1061076f5761010080835404028352916020019161079a565b820191906000526020600020905b81548152906001019060200180831161077d57829003601f168201915b5050505050815260200190600101906106f2565b50505050905090565b600181805160208101820180518482526020830160208501208183528095505050505050600091509050806000015490806001018054600181600116156101000203166002900480601f01602080910402602001604051908101604052809291908181526020018280546001816001161561010002031660029004801561087f5780601f106108545761010080835404028352916020019161087f565b820191906000526020600020905b81548152906001019060200180831161086257829003601f168201915b505050505090806002018054600181600116156101000203166002900480601f01602080910402602001604051908101604052809291908181526020018280546001816001161561010002031660029004801561091d5780601f106108f25761010080835404028352916020019161091d565b820191906000526020600020905b81548152906001019060200180831161090057829003601f168201915b5050505050908060030154908060040154908060050160009054906101000a900473ffffffffffffffffffffffffffffffffffffffff16908060050160149054906101000a900460ff16908060060154905088565b6060806008546040519080825280602002602001820160405280156109b157816020015b61099e611832565b8152602001906001900390816109965790505b50905060008090505b600780549050811015610c08576001600782815481106109d657fe5b906000526020600020016040516109ed919061225f565b90815260200160405180910390206040518061010001604052908160008201548152602001600182018054600181600116156101000203166002900480601f016020809104026020016040519081016040528092919081815260200182805460018160011615610100020316600290048015610aaa5780601f10610a7f57610100808354040283529160200191610aaa565b820191906000526020600020905b815481529060010190602001808311610a8d57829003601f168201915b50505050508152602001600282018054600181600116156101000203166002900480601f016020809104026020016040519081016040528092919081815260200182805460018160011615610100020316600290048015610b4c5780601f10610b2157610100808354040283529160200191610b4c565b820191906000526020600020905b815481529060010190602001808311610b2f57829003601f168201915b5050505050815260200160038201548152602001600482015481526020016005820160009054906101000a900473ffffffffffffffffffffffffffffffffffffffff1673ffffffffffffffffffffffffffffffffffffffff1673ffffffffffffffffffffffffffffffffffffffff1681526020016005820160149054906101000a900460ff16151515158152602001600682015481525050828281518110610bf057fe5b602002602001018190525080806001019150506109ba565b508091505090565b806000809054906101000a900473ffffffffffffffffffffffffffffffffffffffff1673ffffffffffffffffffffffffffffffffffffffff166370a08231306040518263ffffffff1660e01b8152600401610c6b9190612276565b60206040518083038186803b158015610c8357600080fd5b505afa158015610c97573d6000803e3d6000fd5b505050506040513d601f19601f82011682018060405250610cbb9190810190611d10565b1015610cc657600080fd5b6000809054906101000a900473ffffffffffffffffffffffffffffffffffffffff1673ffffffffffffffffffffffffffffffffffffffff1663a9059cbb33836040518363ffffffff1660e01b8152600401610d22929190612344565b602060405180830381600087803b158015610d3c57600080fd5b505af1158015610d50573d6000803e3d6000fd5b505050506040513d601f19601f82011682018060405250610d749190810190611afc565b507f8daf503382665d950e449b86172be5222275c90f4ddf69c29fdaa8237a562a6d336000809054906101000a900473ffffffffffffffffffffffffffffffffffffffff16836064604051610dcc94939291906122d6565b60405180910390a150565b60001515600460003373ffffffffffffffffffffffffffffffffffffffff1673ffffffffffffffffffffffffffffffffffffffff16815260200190815260200160002060009054906101000a900460ff16151514610e3457600080fd5b6000809054906101000a900473ffffffffffffffffffffffffffffffffffffffff1673ffffffffffffffffffffffffffffffffffffffff1663a9059cbb3360c86040518363ffffffff1660e01b8152600401610e9192919061231b565b602060405180830381600087803b158015610eab57600080fd5b505af1158015610ebf573d6000803e3d6000fd5b505050506040513d601f19601f82011682018060405250610ee39190810190611afc565b506001600460003373ffffffffffffffffffffffffffffffffffffffff1673ffffffffffffffffffffffffffffffffffffffff16815260200190815260200160002060006101000a81548160ff0219169083151502179055507f8daf503382665d950e449b86172be5222275c90f4ddf69c29fdaa8237a562a6d336000809054906101000a900473ffffffffffffffffffffffffffffffffffffffff1660c86064604051610f949493929190612291565b60405180910390a1565b610fa66116d2565b610fae6116d2565b600183604051610fbe9190612248565b90815260200160405180910390206040518061010001604052908160008201548152602001600182018054600181600116156101000203166002900480601f01602080910402602001604051908101604052809291908181526020018280546001816001161561010002031660029004801561107b5780601f106110505761010080835404028352916020019161107b565b820191906000526020600020905b81548152906001019060200180831161105e57829003601f168201915b50505050508152602001600282018054600181600116156101000203166002900480601f01602080910402602001604051908101604052809291908181526020018280546001816001161561010002031660029004801561111d5780601f106110f25761010080835404028352916020019161111d565b820191906000526020600020905b81548152906001019060200180831161110057829003601f168201915b5050505050815260200160038201548152602001600482015481526020016005820160009054906101000a900473ffffffffffffffffffffffffffffffffffffffff1673ffffffffffffffffffffffffffffffffffffffff1673ffffffffffffffffffffffffffffffffffffffff1681526020016005820160149054906101000a900460ff16151515158152602001600682015481525050905080915050919050565b6060806008546040519080825280602002602001820160405280156111ff57816020015b6111ec611832565b8152602001906001900390816111e45790505b50905060008090505b6007805490508110156114e2578373ffffffffffffffffffffffffffffffffffffffff1660016007838154811061123b57fe5b90600052602060002001604051611252919061225f565b908152602001604051809103902060050160009054906101000a900473ffffffffffffffffffffffffffffffffffffffff1673ffffffffffffffffffffffffffffffffffffffff1614156114d5576001600782815481106112af57fe5b906000526020600020016040516112c6919061225f565b90815260200160405180910390206040518061010001604052908160008201548152602001600182018054600181600116156101000203166002900480601f0160208091040260200160405190810160405280929190818152602001828054600181600116156101000203166002900480156113835780601f1061135857610100808354040283529160200191611383565b820191906000526020600020905b81548152906001019060200180831161136657829003601f168201915b50505050508152602001600282018054600181600116156101000203166002900480601f0160208091040260200160405190810160405280929190818152602001828054600181600116156101000203166002900480156114255780601f106113fa57610100808354040283529160200191611425565b820191906000526020600020905b81548152906001019060200180831161140857829003601f168201915b5050505050815260200160038201548152602001600482015481526020016005820160009054906101000a900473ffffffffffffffffffffffffffffffffffffffff1673ffffffffffffffffffffffffffffffffffffffff1673ffffffffffffffffffffffffffffffffffffffff1681526020016005820160149054906101000a900460ff161515151581526020016006820154815250508282815181106114c957fe5b60200260200101819052505b8080600101915050611208565b5080915050919050565b6060818060a0015173ffffffffffffffffffffffffffffffffffffffff163373ffffffffffffffffffffffffffffffffffffffff1614611561576040517f08c379a0000000000000000000000000000000000000000000000000000000008152600401611558906124ac565b60405180910390fd5b60056000846060015181526020019081526020016000208054600181600116156101000203166002900480601f01602080910402602001604051908101604052809291908181526020018280546001816001161561010002031660029004801561160c5780601f106115e15761010080835404028352916020019161160c565b820191906000526020600020905b8154815290600101906020018083116115ef57829003601f168201915b5050505050915050919050565b6007818154811061162657fe5b906000526020600020016000915090508054600181600116156101000203166002900480601f0160208091040260200160405190810160405280929190818152602001828054600181600116156101000203166002900480156116ca5780601f1061169f576101008083540402835291602001916116ca565b820191906000526020600020905b8154815290600101906020018083116116ad57829003601f168201915b505050505081565b6040518061010001604052806000815260200160608152602001606081526020016000801916815260200160008152602001600073ffffffffffffffffffffffffffffffffffffffff168152602001600015158152602001600081525090565b828054600181600116156101000203166002900490600052602060002090601f016020900481019282601f1061177357805160ff19168380011785556117a1565b828001600101855582156117a1579182015b828111156117a0578251825591602001919060010190611785565b5b5090506117ae9190611892565b5090565b828054600181600116156101000203166002900490600052602060002090601f016020900481019282601f106117f357805160ff1916838001178555611821565b82800160010185558215611821579182015b82811115611820578251825591602001919060010190611805565b5b50905061182e9190611892565b5090565b6040518061010001604052806000815260200160608152602001606081526020016000801916815260200160008152602001600073ffffffffffffffffffffffffffffffffffffffff168152602001600015158152602001600081525090565b6118b491905b808211156118b0576000816000905550600101611898565b5090565b90565b6000813590506118c6816127c8565b92915050565b6000813590506118db816127df565b92915050565b6000815190506118f0816127df565b92915050565b600081359050611905816127f6565b92915050565b600082601f83011261191c57600080fd5b813561192f61192a826125a7565b61257a565b9150808252602083016020830185838301111561194b57600080fd5b611956838284612775565b50505092915050565b600082601f83011261197057600080fd5b813561198361197e826125d3565b61257a565b9150808252602083016020830185838301111561199f57600080fd5b6119aa838284612775565b50505092915050565b600061010082840312156119c657600080fd5b6119d161010061257a565b905060006119e184828501611aa9565b600083015250602082013567ffffffffffffffff811115611a0157600080fd5b611a0d8482850161190b565b602083015250604082013567ffffffffffffffff811115611a2d57600080fd5b611a398482850161190b565b6040830152506060611a4d848285016118f6565b6060830152506080611a6184828501611aa9565b60808301525060a0611a75848285016118b7565b60a08301525060c0611a89848285016118cc565b60c08301525060e0611a9d84828501611aa9565b60e08301525092915050565b600081359050611ab88161280d565b92915050565b600081519050611acd8161280d565b92915050565b600060208284031215611ae557600080fd5b6000611af3848285016118b7565b91505092915050565b600060208284031215611b0e57600080fd5b6000611b1c848285016118e1565b91505092915050565b600060208284031215611b3757600080fd5b600082013567ffffffffffffffff811115611b5157600080fd5b611b5d8482850161190b565b91505092915050565b600060208284031215611b7857600080fd5b600082013567ffffffffffffffff811115611b9257600080fd5b611b9e8482850161195f565b91505092915050565b60008060408385031215611bba57600080fd5b600083013567ffffffffffffffff811115611bd457600080fd5b611be08582860161195f565b9250506020611bf1858286016118b7565b9150509250929050565b60008060008060808587031215611c1157600080fd5b600085013567ffffffffffffffff811115611c2b57600080fd5b611c378782880161195f565b945050602085013567ffffffffffffffff811115611c5457600080fd5b611c608782880161195f565b9350506040611c7187828801611aa9565b925050606085013567ffffffffffffffff811115611c8e57600080fd5b611c9a8782880161195f565b91505092959194509250565b600060208284031215611cb857600080fd5b600082013567ffffffffffffffff811115611cd257600080fd5b611cde848285016119b3565b91505092915050565b600060208284031215611cf957600080fd5b6000611d0784828501611aa9565b91505092915050565b600060208284031215611d2257600080fd5b6000611d3084828501611abe565b91505092915050565b6000611d458383611f3c565b905092915050565b6000611d598383612173565b905092915050565b611d6a8161271b565b82525050565b611d79816126c9565b82525050565b611d88816126c9565b82525050565b6000611d9982612634565b611da3818561267a565b935083602082028501611db5856125ff565b8060005b85811015611df15784840389528151611dd28582611d39565b9450611ddd83612660565b925060208a01995050600181019050611db9565b50829750879550505050505092915050565b6000611e0e8261263f565b611e18818561268b565b935083602082028501611e2a8561260f565b8060005b85811015611e665784840389528151611e478582611d4d565b9450611e528361266d565b925060208a01995050600181019050611e2e565b50829750879550505050505092915050565b611e81816126db565b82525050565b611e90816126db565b82525050565b611e9f816126e7565b82525050565b611eae816126e7565b82525050565b611ebd8161272d565b82525050565b611ecc8161273f565b82525050565b6000611edd82612655565b611ee781856126ad565b9350611ef7818560208601612784565b611f00816127b7565b840191505092915050565b6000611f1682612655565b611f2081856126be565b9350611f30818560208601612784565b80840191505092915050565b6000611f478261264a565b611f51818561269c565b9350611f61818560208601612784565b611f6a816127b7565b840191505092915050565b6000611f808261264a565b611f8a81856126ad565b9350611f9a818560208601612784565b611fa3816127b7565b840191505092915050565b600081546001811660008114611fcb5760018114611ff057612034565b607f6002830416611fdc81876126be565b955060ff1983168652808601935050612034565b60028204611ffe81876126be565b95506120098561261f565b60005b8281101561202b5781548189015260018201915060208101905061200c565b82880195505050505b505092915050565b60006120496012836126ad565b91507f6974656d206e6f7420617661696c61626c6500000000000000000000000000006000830152602082019050919050565b60006120896013836126ad565b91507f796f7520617265206e6f7420616c6c6f776564000000000000000000000000006000830152602082019050919050565b6000610100830160008301516120d5600086018261222a565b50602083015184820360208601526120ed8282611f3c565b915050604083015184820360408601526121078282611f3c565b915050606083015161211c6060860182611e96565b50608083015161212f608086018261222a565b5060a083015161214260a0860182611d70565b5060c083015161215560c0860182611e78565b5060e083015161216860e086018261222a565b508091505092915050565b60006101008301600083015161218c600086018261222a565b50602083015184820360208601526121a48282611f3c565b915050604083015184820360408601526121be8282611f3c565b91505060608301516121d36060860182611e96565b5060808301516121e6608086018261222a565b5060a08301516121f960a0860182611d70565b5060c083015161220c60c0860182611e78565b5060e083015161221f60e086018261222a565b508091505092915050565b61223381612711565b82525050565b61224281612711565b82525050565b60006122548284611f0b565b915081905092915050565b600061226b8284611fae565b915081905092915050565b600060208201905061228b6000830184611d7f565b92915050565b60006080820190506122a66000830187611d61565b6122b36020830186611d7f565b6122c06040830185611ec3565b6122cd6060830184611eb4565b95945050505050565b60006080820190506122eb6000830187611d61565b6122f86020830186611d7f565b6123056040830185612239565b6123126060830184611eb4565b95945050505050565b60006040820190506123306000830185611d61565b61233d6020830184611ec3565b9392505050565b60006040820190506123596000830185611d61565b6123666020830184612239565b9392505050565b60006060820190506123826000830186611d7f565b61238f6020830185611d7f565b61239c6040830184612239565b949350505050565b600060208201905081810360008301526123be8184611d8e565b905092915050565b600060208201905081810360008301526123e08184611e03565b905092915050565b60006020820190506123fd6000830184611e87565b92915050565b6000602082019050818103600083015261241d8184611f75565b905092915050565b6000602082019050818103600083015261243f8184611ed2565b905092915050565b600060608201905081810360008301526124618186611ed2565b905081810360208301526124758185611ed2565b90506124846040830184612239565b949350505050565b600060208201905081810360008301526124a58161203c565b9050919050565b600060208201905081810360008301526124c58161207c565b9050919050565b600060208201905081810360008301526124e681846120bc565b905092915050565b600061010082019050612504600083018b612239565b8181036020830152612516818a611f75565b9050818103604083015261252a8189611f75565b90506125396060830188611ea5565b6125466080830187612239565b61255360a0830186611d7f565b61256060c0830185611e87565b61256d60e0830184612239565b9998505050505050505050565b6000604051905081810181811067ffffffffffffffff8211171561259d57600080fd5b8060405250919050565b600067ffffffffffffffff8211156125be57600080fd5b601f19601f8301169050602081019050919050565b600067ffffffffffffffff8211156125ea57600080fd5b601f19601f8301169050602081019050919050565b6000819050602082019050919050565b6000819050602082019050919050565b60008190508160005260206000209050919050565b600081519050919050565b600081519050919050565b600081519050919050565b600081519050919050565b6000602082019050919050565b6000602082019050919050565b600082825260208201905092915050565b600082825260208201905092915050565b600082825260208201905092915050565b600082825260208201905092915050565b600081905092915050565b60006126d4826126f1565b9050919050565b60008115159050919050565b6000819050919050565b600073ffffffffffffffffffffffffffffffffffffffff82169050919050565b6000819050919050565b600061272682612751565b9050919050565b600061273882612711565b9050919050565b600061274a82612711565b9050919050565b600061275c82612763565b9050919050565b600061276e826126f1565b9050919050565b82818337600083830152505050565b60005b838110156127a2578082015181840152602081019050612787565b838111156127b1576000848401525b50505050565b6000601f19601f8301169050919050565b6127d1816126c9565b81146127dc57600080fd5b50565b6127e8816126db565b81146127f357600080fd5b50565b6127ff816126e7565b811461280a57600080fd5b50565b61281681612711565b811461282157600080fd5b5056fea365627a7a7231582075d75c33043aa231d1053dfe5bf5b52ac76fe23689b994262b6f87b49eccb07f6c6578706572696d656e74616cf564736f6c63430005100040",
  "source": "pragma solidity ^0.5.16;\r\npragma experimental ABIEncoderV2;\r\nimport './Token.sol';\r\n\r\ncontract Redeem{\r\n  Token token;\r\n  mapping (string => Item) public Items;\r\n  mapping(address => Item[]) userItems;\r\n  mapping(address => bool) User;\r\n  mapping(address => bool) public WelcomeOfferAvailed;\r\n  mapping(bytes32 => string) internal credentials;\r\n  address owner;\r\n  string [] public itemIndexes;\r\n  uint256 itemCount = 0;\r\n\r\n\r\n  constructor(Token _token) public{\r\n    token = _token;\r\n    owner = msg.sender;\r\n  }\r\n  struct Item{\r\n    uint _price;\r\n    string _name;\r\n    string _type;\r\n    bytes32 _hash;\r\n    uint _dated;\r\n    address itemOwner;\r\n    bool isAvailable;\r\n    uint index;\r\n  }\r\n\r\n  modifier onlyOwner(){\r\n      require(msg.sender == owner);\r\n      _;\r\n  }\r\n  modifier itemOwner(Item memory _item){\r\n    require(msg.sender== _item.itemOwner,\"you are not allowed\");\r\n    _;\r\n  }\r\n  event TokenPurchased(\r\n    address account,\r\n    address token,\r\n    uint amount,\r\n    uint rate\r\n    );\r\n  /* function deleteItem(string  memory name) internal returns(bool){\r\n    Item memory deletedItem = Items[name];\r\n    if(deletedItem.index != itemIndexes.length -1){\r\n     string memory  lastName = itemIndexes[itemIndexes.length -1];\r\n     itemIndexes[deletedItem.index] = lastName;\r\n     Items[lastName].index = deletedItem.index;\r\n    }\r\n    delete Items[name];\r\n    itemIndexes.length--;\r\n    return true;\r\n  } */\r\n\r\n  function generateItem(string memory  _type, string memory _name,  uint _price, string memory _credentials) public onlyOwner {\r\n      Item memory new_item;\r\n      new_item._name = _name;\r\n      new_item._type = _type;\r\n      new_item._price = _price;\r\n      new_item._dated = now;\r\n      new_item.itemOwner = msg.sender;\r\n      new_item.isAvailable =true;\r\n      new_item._hash = keccak256(abi.encode(_name,_type,new_item._dated));\r\n      Items[_name] = new_item;\r\n      credentials[new_item._hash] = _credentials;\r\n      itemCount = itemCount +1;\r\n      itemIndexes.push(_name);\r\n      new_item.index= itemIndexes.length-1;\r\n  }\r\n  function getItems() public returns(string [] memory){\r\n      return itemIndexes;\r\n  }\r\n\r\n  function getItem(string memory _name) view public returns(Item memory){\r\n    Item memory _item = Items[_name];\r\n    return (_item);\r\n  }\r\n\r\n  function getAllItems() view public returns (Item[] memory){\r\n    Item[] memory allItems = new Item[](itemCount);\r\n    for(uint i=0;i<itemIndexes.length;i++){\r\n      allItems[i] = Items[itemIndexes[i]];\r\n    }\r\n    return allItems;\r\n  }\r\n\r\n  function getCredentials(Item memory _item) view  public itemOwner(_item) returns(string memory) {\r\n    return (credentials[_item._hash]);\r\n  }\r\n\r\n  function getUserItems(address _user) view public returns (Item[] memory){\r\n    Item[] memory allItems = new Item[](itemCount);\r\n    for(uint i=0;i<itemIndexes.length;i++){\r\n      if(Items[itemIndexes[i]].itemOwner== _user){\r\n      allItems[i] = Items[itemIndexes[i]];\r\n     }\r\n    }\r\n    return allItems;\r\n  }\r\n\r\n  function transferToken( uint amount) public {\r\n    require(token.balanceOf(address(this))>= amount);\r\n    token.transfer(msg.sender,amount);\r\n    emit TokenPurchased(msg.sender,address(token),amount,100);\r\n  }\r\n\r\n  function welcomeToken() public {\r\n    require(WelcomeOfferAvailed[msg.sender]==false);\r\n    token.transfer(msg.sender,200);\r\n    WelcomeOfferAvailed[msg.sender] = true;\r\n    emit TokenPurchased(msg.sender,address(token),200,100);\r\n  }\r\n\r\n  function redeemItem(string memory  _name, address _address) public {\r\n    uint price = Items[_name]._price;\r\n    Item storage item = Items[_name];\r\n    require(item.isAvailable,\"item not available\");\r\n    item.itemOwner = _address;\r\n    item.isAvailable=false;\r\n    token.transferFrom(_address,address(this),price);\r\n  }\r\n\r\n}\r\n",
  "sourcePath": "C:\\Users\\hp\\desktop\\myfirstreact\\src\\contracts\\Redeem.sol",
  "compiler": {
    "name": "solc",
    "version": "0.5.16+commit.9c3226ce.Emscripten.clang"
  },
  "schemaVersion": "3.0.23",
  "updatedAt": "2020-04-13T10:12:49.527Z",
  "networkType": "ethereum",
  "devdoc": {
    "methods": {}
  },
  "userdoc": {
    "methods": {}
  }
}